TE000010000000062475552672   MARIA SOUZA           66015110BELEM               PA202405031840AUS 5700000094352
TE000010000000151005687069   JOAO DA SILVA         80010010CURITIBA            PR202408240849ENT15560000054541
TE000010000000216793235393   JULIANA ALVES         01310100SAO PAULO           SP202411181717DEV24090000481081
TE000010000000351657079432   ANA COSTA             88010400FLORIANOPOLIS       SC202409271302SAI23230000115761
TE000010000000446855190204   PEDRO OLIVEIRA        59010000NATAL               RN202411300820EXT25960000356761
TE000010000000551093346533   LARISSA CARVALHO      40020010SALVADOR            BA202405010620AUS31170000458682
TE000010000000670098416437   THIAGO ARAUJO         01310100SAO PAULO           SP202411231006AUS 1870000489352
TE000010000000701259283397   PEDRO OLIVEIRA        50010000RECIFE              PE202411241724DEV 9880000297541
TE000010000000875059173930   PEDRO OLIVEIRA        01310100SAO PAULO           SP202412171746TRS49300000055021
TE000010000000998331793647   JOAO DA SILVA         90010160PORTO ALEGRE        RS202411041446TRS 4530000252771
TE000010000001045259357076   CAMILA MARTINS        01310100SAO PAULO           SP202410221425SAI 2010000307341
TE000010000001156227192602   DIEGO NASCIMENTO      29010330VITORIA             ES202402030935AUS42980000013082
TE000010000001209360919490   ISABELA FREITAS       20040020RIO DE JANEIRO      RJ202411302003ENT17080000089081
TE000010000001362805877770   PEDRO OLIVEIRA        60150160FORTALEZA           CE202412092008EXT32590000331951
TE000010000001411956964607735NATALIA ROCHA         80010010CURITIBA            PR202407180937SAI13230000024191
TE000010000001513563974892   CAMILA MARTINS        01310100SAO PAULO           SP202401252122ENT35760000306031
TE000010000001686735818217   AMANDA RIBEIRO        60150160FORTALEZA           CE202409172018AUS37950000397942
TE000010000001799584383569   LEONARDO BARBOSA      74110010GOIANIA             GO202408280911TRS12840000023651
TE000010000001893064691267   ANA COSTA             74110010GOIANIA             GO202402151937DEV16490000138161
TE000010000001903138783056   GABRIEL MENDES        30130110BELO HORIZONTE      MG202409202123SAI20280000215891
TE000010000002026202948747   GABRIEL MENDES        20040020RIO DE JANEIRO      RJ202402281135SAI34030000387241
TE000010000002193451739222   LEONARDO BARBOSA      40020010SALVADOR            BA202402122041AUS42830000282782
TE000010000002203947505577   AMANDA RIBEIRO        29010330VITORIA             ES202410150829TRS17690000048601
TE000010000002343453538115   AMANDA RIBEIRO        80010010CURITIBA            PR202401171057AUS13930000032872
TE000010000002480369575629   RAFAEL RODRIGUES      40020010SALVADOR            BA202404120926DEV31930000301861
TE000010000002588550694394   RAFAEL RODRIGUES      29010330VITORIA             ES202402240750EXT 6520000010251
TE000010000002679749354921   JOAO DA SILVA         20040020RIO DE JANEIRO      RJ202409250832DEV35050000400611
TE000010000002791329357538   PATRICIA LIMA         29010330VITORIA             ES202409140806ENT27610000469651
TE000010000002834756016426   FERNANDA SANTOS       60150160FORTALEZA           CE202406201618AUS14320000002122
TE000010000002913546922394   JOAO DA SILVA         50010000RECIFE              PE202402122015EXT25170000150121
TE000010000003060954700603   LEONARDO BARBOSA      90010160PORTO ALEGRE        RS202402090728DEV30280000071011
TE000010000003152141202241   AMANDA RIBEIRO        80010010CURITIBA            PR202407230824DEV 4400000398041
TE000010000003241854133366   CAMILA MARTINS        88010400FLORIANOPOLIS       SC202401071033TRS49920000044131
TE000010000003365817915782   LEONARDO BARBOSA      01310100SAO PAULO           SP202412261611EXT25900000388391
TE000010000003419114299948141PATRICIA LIMA         01310100SAO PAULO           SP202402131252DEV30640000454401
TE000010000003599391426520   ANA COSTA             59010000NATAL               RN202403240606AUS25730000028152
TE000010000003698446988866594ISABELA FREITAS       20040020RIO DE JANEIRO      RJ202412191029SAI11200000162061
TE000010000003775916449153   CARLOS LIMA           88010400FLORIANOPOLIS       SC202402280657ENT 9050000124961
TE000010000003852315682342840CARLOS LIMA           30130110BELO HORIZONTE      MG202405081811AUS40040000053522
TE000010000003920253423867   MARIA SOUZA           59010000NATAL               RN202408172124ENT26470000088221
TE000010000004039876674087   AMANDA RIBEIRO        59010000NATAL               RN202403090802AUS28690000116962
TE000010000004100330510972   PATRICIA LIMA         29010330VITORIA             ES202408241022TRS15970000283281
TE000010000004216893927639   ISABELA FREITAS       80010010CURITIBA            PR202412241114DEV 9470000361321
TE000010000004389363278680704FERNANDA SANTOS       66015110BELEM               PA202404281757AUS19920000051822
TE000010000004495931169921   LUCAS PEREIRA         80010010CURITIBA            PR202405071545AUS 5670000226872
TE000010000004570775088494999DIEGO NASCIMENTO      40020010SALVADOR            BA202406262024DEV35090000461601
TE000010000004621380595194   ISABELA FREITAS       60150160FORTALEZA           CE202407021447SAI14340000242991
TE000010000004751330591541   LEONARDO BARBOSA      69005010MANAUS              AM202404161707EXT 9150000016981
TE000010000004874513636590   BRUNO FERREIRA        88010400FLORIANOPOLIS       SC202401161404AUS20440000325462
TE000010000004922342678703   FERNANDA SANTOS       40020010SALVADOR            BA202411200908DEV 7560000289241
TE000010000005089935475211275LEONARDO BARBOSA      69005010MANAUS              AM202405052157SAI 6760000057461
TE000010000005133108862306   BRUNO FERREIRA        29010330VITORIA             ES202410241443ENT 3190000153921
TE000010000005281803648510   MARIA SOUZA           30130110BELO HORIZONTE      MG202402042209TRS 7200000462961
TE000010000005381702846168   AMANDA RIBEIRO        90010160PORTO ALEGRE        RS202408161211ENT24060000372161
TE000010000005470320434743   LUCAS PEREIRA         60150160FORTALEZA           CE202406051006ENT34690000236731
TE000010000005500460104131355BRUNO FERREIRA        88010400FLORIANOPOLIS       SC202408211508ENT39690000497961
TE000010000005622395672176   PEDRO OLIVEIRA        88010400FLORIANOPOLIS       SC202409242145DEV38180000321851
TE000010000005775138771239   ISABELA FREITAS       20040020RIO DE JANEIRO      RJ202409291339AUS14160000027342
TE000010000005873045194558   LARISSA CARVALHO      57020480MACEIO              AL202409180841EXT38370000474601
TE000010000005918807964031   CAMILA MARTINS        57020480MACEIO              AL202409051632TRS16780000372721
TE000010000006085362054493392THIAGO ARAUJO         20040020RIO DE JANEIRO      RJ202412111616ENT34630000149351
TE000010000006167020715378   RAFAEL RODRIGUES      30130110BELO HORIZONTE      MG202401291722EXT29520000471191
TE000010000006235440789677   GABRIEL MENDES        59010000NATAL               RN202409261141EXT12090000069371
TE000010000006300720409471   ANA COSTA             29010330VITORIA             ES202403291525ENT37330000240551
TE000010000006480410486671   GABRIEL MENDES        69005010MANAUS              AM202405111409AUS11320000191592
TE000010000006570498671101   GABRIEL MENDES        50010000RECIFE              PE202408260614SAI13860000213841
TE000010000006604430732466   GABRIEL MENDES        74110010GOIANIA             GO202411102142TRS 5900000494641
TE000010000006704381779989   LEONARDO BARBOSA      30130110BELO HORIZONTE      MG202405131853DEV14170000185871
TE000010000006848113018643   CARLOS LIMA           40020010SALVADOR            BA202402121459TRS32040000243521
TE000010000006912759170034374LUCAS PEREIRA         88010400FLORIANOPOLIS       SC202403201756AUS39420000193992
TE000010000007053625123115411ANA COSTA             74110010GOIANIA             GO202401141001AUS 1940000320342
TE000010000007169300522144267JULIANA ALVES         88010400FLORIANOPOLIS       SC202407061235TRS12140000207061
TE000010000007211615999442   LARISSA CARVALHO      29010330VITORIA             ES202412250834TRS27980000206161
TE000010000007358268295081   RAFAEL RODRIGUES      59010000NATAL               RN202411091502SAI16680000087531
TE000010000007485935803528805JOAO DA SILVA         57020480MACEIO              AL202409101602AUS42650000057692
TE000010000007573544252477   AMANDA RIBEIRO        50010000RECIFE              PE202405091549TRS47320000255931
TE000010000007693046400606   LEONARDO BARBOSA      90010160PORTO ALEGRE        RS202409181024TRS45750000284681
TE000010000007775537793854609ANA COSTA             30130110BELO HORIZONTE      MG202403030656TRS 2990000306561
TE000010000007854539601609932RAFAEL RODRIGUES      50010000RECIFE              PE202401162036SAI33530000089171
TE000010000007917431603250   JULIANA ALVES         88010400FLORIANOPOLIS       SC202412141515EXT49940000333261
TE000010000008044278952361   AMANDA RIBEIRO        74110010GOIANIA             GO202405151946TRS28530000200731
TE000010000008159578127317   PATRICIA LIMA         66015110BELEM               PA202412031028EXT 9720000346741
TE000010000008224023936276   ANA COSTA             50010000RECIFE              PE202407281445ENT23670000026491
TE000010000008365511286381   ANA COSTA             01310100SAO PAULO           SP202406280608EXT11750000348581
TE000010000008420745952827   LARISSA CARVALHO      50010000RECIFE              PE202409031411SAI18210000208631
TE000010000008533732783969   FERNANDA SANTOS       20040020RIO DE JANEIRO      RJ202406250902ENT12300000248611
TE000010000008672143486965371CAMILA MARTINS        57020480MACEIO              AL202407012115ENT 3150000233371
TE000010000008789831873095079LUCAS PEREIRA         59010000NATAL               RN202404292028SAI 9630000085311
TE000010000008834148502759   JOAO DA SILVA         90010160PORTO ALEGRE        RS202403171934EXT 2510000000161
TE000010000008972208712189   RAFAEL RODRIGUES      80010010CURITIBA            PR202404021338EXT27480000373701
TE000010000009002331599875   ANA COSTA             50010000RECIFE              PE202407032050DEV 3420000129561
TE000010000009108880609417502RAFAEL RODRIGUES      20040020RIO DE JANEIRO      RJ202404230603AUS43040000409772
TE000010000009275875585095   LEONARDO BARBOSA      29010330VITORIA             ES202402191521ENT25300000405411
TE000010000009372366946272   GABRIEL MENDES        69005010MANAUS              AM202406220934ENT24590000452061
TE000010000009443845046217643PATRICIA LIMA         74110010GOIANIA             GO202404131506AUS31930000294342
TE000010000009507886985857   RAFAEL RODRIGUES      74110010GOIANIA             GO202402080803AUS36770000299972
TE000010000009664187939789   BRUNO FERREIRA        40020010SALVADOR            BA202408202103ENT14110000182671
TE000010000009716459824378   JOAO DA SILVA         60150160FORTALEZA           CE202408130618ENT40520000411741
TE000010000009865187569269   CARLOS LIMA           29010330VITORIA             ES202401261342EXT14020000307771
TE000010000009957125672123   JOAO DA SILVA         01310100SAO PAULO           SP202410091629EXT42440000377551
TE000010000010091532425660   JOAO DA SILVA         74110010GOIANIA             GO202410030656TRS41230000352381
TE000010000010190303413653   CARLOS LIMA           74110010GOIANIA             GO202409201627EXT44910000174951
TE000010000010297707060074   DIEGO NASCIMENTO      20040020RIO DE JANEIRO      RJ202405221315AUS 3570000033342
TE000010000010391744368716   JULIANA ALVES         90010160PORTO ALEGRE        RS202412252027SAI 7490000234471
TE000010000010474054586618   CARLOS LIMA           60150160FORTALEZA           CE202410032119ENT23450000111631
TE000010000010553141988726   LUCAS PEREIRA         88010400FLORIANOPOLIS       SC202405121105EXT14190000089361
TE000010000010639982159007   ANA COSTA             40020010SALVADOR            BA202403110618EXT23370000335181
TE000010000010756771541766   JOAO DA SILVA         60150160FORTALEZA           CE202406101935DEV19890000377961
TE000010000010816457677657666RAFAEL RODRIGUES      50010000RECIFE              PE202407200735TRS11290000005511
TE000010000010952964552175   MARIA SOUZA           60150160FORTALEZA           CE202410202231DEV12000000388811
TE000010000011072754422061   ISABELA FREITAS       80010010CURITIBA            PR202412200726DEV14940000389881
TE000010000011173864006724   LARISSA CARVALHO      59010000NATAL               RN202408091237ENT21130000106311
TE000010000011214303183933   JOAO DA SILVA         57020480MACEIO              AL202402100958ENT42640000172251
TE000010000011365488558755   CARLOS LIMA           88010400FLORIANOPOLIS       SC202405281709DEV33160000068381
TE000010000011443697457835   PEDRO OLIVEIRA        57020480MACEIO              AL202408191241DEV38370000467021
TE000010000011535566963389   CAMILA MARTINS        88010400FLORIANOPOLIS       SC202410021942TRS 6590000304071
TE000010000011625601999162   RAFAEL RODRIGUES      59010000NATAL               RN202408051540AUS35480000461162
TE000010000011793684268517   LEONARDO BARBOSA      50010000RECIFE              PE202404071930DEV 4980000059281
TE000010000011802719095203   ISABELA FREITAS       66015110BELEM               PA202408201106SAI11170000239421
TE000010000011990456244622   MARIA SOUZA           20040020RIO DE JANEIRO      RJ202407191627AUS18780000414292
TE000010000012093508243262   BRUNO FERREIRA        40020010SALVADOR            BA202412100817ENT20250000035161
TE000010000012155984142024   GABRIEL MENDES        60150160FORTALEZA           CE202404071703AUS23930000241872
TE000010000012293328099970244JOAO DA SILVA         60150160FORTALEZA           CE202404130801DEV 1980000306741
TE000010000012382353277376   CAMILA MARTINS        80010010CURITIBA            PR202405112025ENT36840000083411
TE000010000012473554814712   DIEGO NASCIMENTO      69005010MANAUS              AM202408070921EXT21230000380171
TE000010000012592942702150   ANA COSTA             40020010SALVADOR            BA202405101340SAI47640000033121
TE000010000012679895824773   LUCAS PEREIRA         88010400FLORIANOPOLIS       SC202410160853SAI 4550000144861
TE000010000012719127593955   THIAGO ARAUJO         66015110BELEM               PA202402141551SAI 7900000484571
TE000010000012822065910044364LUCAS PEREIRA         69005010MANAUS              AM202405161516SAI14130000490691
TE000010000012969142200722   THIAGO ARAUJO         69005010MANAUS              AM202409131320SAI38830000333321
TE000010000013087857109338530JOAO DA SILVA         01310100SAO PAULO           SP202410280757ENT35650000138741
TE000010000013125867754658   LARISSA CARVALHO      20040020RIO DE JANEIRO      RJ202409021135EXT26310000303111
TE000010000013234463324656   GABRIEL MENDES        60150160FORTALEZA           CE202402031618EXT34650000481581
TE000010000013317573518517   DIEGO NASCIMENTO      74110010GOIANIA             GO202412111822EXT47390000236531
TE000010000013465600337522   LEONARDO BARBOSA      59010000NATAL               RN202407211433TRS12440000057851
TE000010000013522251455795372JULIANA ALVES         50010000RECIFE              PE202407221902TRS 6740000186601
TE000010000013664302970813722LEONARDO BARBOSA      90010160PORTO ALEGRE        RS202403140901DEV17400000237041
TE000010000013724392295014   LEONARDO BARBOSA      69005010MANAUS              AM202403091401AUS36430000443592
TE000010000013895390878347   DIEGO NASCIMENTO      50010000RECIFE              PE202412170603AUS42430000102122
TE000010000013966669483609   PATRICIA LIMA         40020010SALVADOR            BA202409221932SAI30160000477611
TE000010000014055925629726692LUCAS PEREIRA         29010330VITORIA             ES202403141628EXT14010000319711
TE000010000014146892704723   JULIANA ALVES         60150160FORTALEZA           CE202411221456AUS35090000260672
TE000010000014251496180686288DIEGO NASCIMENTO      29010330VITORIA             ES202409232230DEV14870000178151
TE000010000014394039518695   LARISSA CARVALHO      29010330VITORIA             ES202402141342TRS23370000030831
TE000010000014483318380169   LUCAS PEREIRA         60150160FORTALEZA           CE202408281937ENT12070000422971
TE000010000014537793980122   JOAO DA SILVA         20040020RIO DE JANEIRO      RJ202407161206DEV31060000118211
TE000010000014623915231336314JOAO DA SILVA         74110010GOIANIA             GO202410101105SAI40730000029811
TE000010000014718967201295903ANA COSTA             66015110BELEM               PA202408212140TRS33670000377021
TE000010000014800019176532   PATRICIA LIMA         59010000NATAL               RN202406072215TRS18910000334431
TE000010000014971515474691   ANA COSTA             50010000RECIFE              PE202411160757EXT46250000296351
TE000010000015072820400938083PATRICIA LIMA         66015110BELEM               PA202410170911SAI14740000074221
TE000010000015100593241832   CAMILA MARTINS        30130110BELO HORIZONTE      MG202412302024SAI30560000096701
TE000010000015202131167954   FERNANDA SANTOS       90010160PORTO ALEGRE        RS202404201156AUS41470000445402
TE000010000015316781167862902BRUNO FERREIRA        20040020RIO DE JANEIRO      RJ202406191232AUS22010000494142
TE000010000015473022099417530PATRICIA LIMA         66015110BELEM               PA202401071750SAI 7350000398671
TE000010000015510507550848   BRUNO FERREIRA        30130110BELO HORIZONTE      MG202410071526AUS37580000040812
TE000010000015678467970083   JOAO DA SILVA         66015110BELEM               PA202408181817EXT25090000026431
TE000010000015783550172727   NATALIA ROCHA         50010000RECIFE              PE202405041035SAI47260000016901
TE000010000015883205112134063DIEGO NASCIMENTO      90010160PORTO ALEGRE        RS202401160856DEV49860000025911
TE000010000015924065117471   PEDRO OLIVEIRA        50010000RECIFE              PE202401261817DEV29800000288311
TE000010000016088631240790   PATRICIA LIMA         66015110BELEM               PA202406010815DEV43690000078951
TE000010000016111456767761   LEONARDO BARBOSA      59010000NATAL               RN202406221017DEV33690000483521
TE000010000016270921764517702CARLOS LIMA           66015110BELEM               PA202404150616EXT29670000150731
TE000010000016382772532095   LEONARDO BARBOSA      66015110BELEM               PA202412191134TRS43930000369641
TE000010000016435872729933   BRUNO FERREIRA        88010400FLORIANOPOLIS       SC202408290610EXT21880000019661
TE000010000016593986639846   PATRICIA LIMA         90010160PORTO ALEGRE        RS202405261408EXT38260000162831
TE000010000016635652391886   THIAGO ARAUJO         69005010MANAUS              AM202403261030SAI28310000147941
TE000010000016740620166334   MARIA SOUZA           20040020RIO DE JANEIRO      RJ202405141005TRS33630000452011
TE000010000016852636288623357MARIA SOUZA           60150160FORTALEZA           CE202405211423TRS10600000485091
TE000010000016943442111754   LEONARDO BARBOSA      60150160FORTALEZA           CE202405301630EXT24660000109241
TE000010000017018842463815   PEDRO OLIVEIRA        30130110BELO HORIZONTE      MG202411150907AUS23370000493112
TE000010000017192464299872   RAFAEL RODRIGUES      50010000RECIFE              PE202404141613EXT44270000324951
TE000010000017291530075145   PEDRO OLIVEIRA        29010330VITORIA             ES202409271354TRS40330000372791
TE000010000017330578245310812RAFAEL RODRIGUES      69005010MANAUS              AM202406021347AUS44830000419392
TE000010000017462430146066   LEONARDO BARBOSA      69005010MANAUS              AM202402280624DEV34850000158821
TE000010000017549121879065   JOAO DA SILVA         69005010MANAUS              AM202402091428ENT29670000380961
TE000010000017612502316004027FERNANDA SANTOS       90010160PORTO ALEGRE        RS202411131950DEV19580000418691
TE000010000017720861498425079DIEGO NASCIMENTO      29010330VITORIA             ES202407132032TRS14420000021241
TE000010000017814144246073   AMANDA RIBEIRO        30130110BELO HORIZONTE      MG202405061904EXT29990000379331
TE000010000017985994757637   NATALIA ROCHA         90010160PORTO ALEGRE        RS202403281301TRS26750000326961
TE000010000018079836760741   MARIA SOUZA           80010010CURITIBA            PR202410271238TRS44860000067741
TE000010000018143903560285   ISABELA FREITAS       66015110BELEM               PA202407281827EXT 2230000404621
TE000010000018254760751210   PEDRO OLIVEIRA        90010160PORTO ALEGRE        RS202405281024SAI12200000248831
TE000010000018341802459408   CAMILA MARTINS        29010330VITORIA             ES202411061320AUS31590000157552
TE000010000018443779507655   THIAGO ARAUJO         57020480MACEIO              AL202404242156TRS46880000491181
TE000010000018552512258467   LEONARDO BARBOSA      59010000NATAL               RN202411230705EXT41280000212741
TE000010000018627929496523   NATALIA ROCHA         69005010MANAUS              AM202409111443DEV47180000404061
TE000010000018703854070084159PEDRO OLIVEIRA        30130110BELO HORIZONTE      MG202405241026DEV27200000307871
TE000010000018838513976352   NATALIA ROCHA         60150160FORTALEZA           CE202408010819SAI36580000490101
TE000010000018940852063346118NATALIA ROCHA         50010000RECIFE              PE202409262112AUS12790000341622
TE000010000019065933804191716MARIA SOUZA           40020010SALVADOR            BA202404131303DEV31610000191281
TE000010000019184366020931   JULIANA ALVES         50010000RECIFE              PE202410100746SAI 6470000020581
TE000010000019267677773657   DIEGO NASCIMENTO      60150160FORTALEZA           CE202407011719TRS 5760000136331
TE000010000019381954351102   DIEGO NASCIMENTO      74110010GOIANIA             GO202404141623SAI20250000032311
TE000010000019423331351485   BRUNO FERREIRA        88010400FLORIANOPOLIS       SC202401152001SAI31840000164101
TE000010000019526067415144876FERNANDA SANTOS       20040020RIO DE JANEIRO      RJ202408031535SAI21880000433121
TE000010000019697302940695725FERNANDA SANTOS       66015110BELEM               PA202401181114EXT30590000332421
TE000010000019777125828488   NATALIA ROCHA         57020480MACEIO              AL202402131553DEV30340000054101
TE000010000019859919456446   RAFAEL RODRIGUES      29010330VITORIA             ES202406131015DEV 1480000019771
TE000010000019952428678554   AMANDA RIBEIRO        57020480MACEIO              AL202401050832DEV39490000499441
TE000010000020050146709367   CARLOS LIMA           29010330VITORIA             ES202411241657ENT11500000329971
TE000010000020104177073460   JULIANA ALVES         20040020RIO DE JANEIRO      RJ202407300914EXT25410000008241
TE000010000020299216457527   CAMILA MARTINS        60150160FORTALEZA           CE202411271145DEV17480000082241
TE000010000020367851506688   PEDRO OLIVEIRA        80010010CURITIBA            PR202407022007EXT27630000239071
TE000010000020461668940936   JULIANA ALVES         69005010MANAUS              AM202405081940ENT28980000372681
TE000010000020551611339563   FERNANDA SANTOS       30130110BELO HORIZONTE      MG202405131759ENT42840000097381
TE000010000020696192126974   ISABELA FREITAS       59010000NATAL               RN202412241837AUS46330000199342
TE000010000020798963196305   FERNANDA SANTOS       50010000RECIFE              PE202411170716EXT17780000254721
TE000010000020822591642301   CARLOS LIMA           50010000RECIFE              PE202405241837EXT 1810000072481
TE000010000020931919863708   CAMILA MARTINS        66015110BELEM               PA202406261351AUS 1360000275292
TE000010000021023063567357   THIAGO ARAUJO         80010010CURITIBA            PR202407191510DEV43660000202761
TE000010000021104003273032   PATRICIA LIMA         29010330VITORIA             ES202409251145AUS25950000455322
TE000010000021235235611882   JOAO DA SILVA         40020010SALVADOR            BA202410030643AUS48730000215952
TE000010000021362185311128   PEDRO OLIVEIRA        50010000RECIFE              PE202409050651SAI33050000277801
TE000010000021436947281326   BRUNO FERREIRA        74110010GOIANIA             GO202409201421ENT16760000131761
TE000010000021579029403753   CAMILA MARTINS        66015110BELEM               PA202412181242EXT 9810000432631
TE000010000021645275671950   JULIANA ALVES         01310100SAO PAULO           SP202407081832AUS46500000040362
TE000010000021712652494891   GABRIEL MENDES        80010010CURITIBA            PR202403222215DEV42180000110911
TE000010000021815149777649   PEDRO OLIVEIRA        40020010SALVADOR            BA202407230826TRS37080000271271
TE000010000021928226195490   CARLOS LIMA           74110010GOIANIA             GO202406051437TRS16540000439681
TE000010000022045776613886   BRUNO FERREIRA        66015110BELEM               PA202406230649EXT 3780000463361
TE000010000022115956783239   CAMILA MARTINS        57020480MACEIO              AL202410291224ENT10580000379561
TE000010000022212706618536   MARIA SOUZA           88010400FLORIANOPOLIS       SC202409282134ENT36900000089001
TE000010000022320338811209966AMANDA RIBEIRO        69005010MANAUS              AM202404222010ENT17330000423931
TE000010000022444836567071   LEONARDO BARBOSA      66015110BELEM               PA202412220622AUS27700000321372
TE000010000022539677054673   NATALIA ROCHA         40020010SALVADOR            BA202402081816EXT49900000003691
TE000010000022654688730588   LARISSA CARVALHO      90010160PORTO ALEGRE        RS202403040754SAI28070000139161
TE000010000022729266254780   MARIA SOUZA           74110010GOIANIA             GO202406162203TRS 2150000059391
TE000010000022861597000190   MARIA SOUZA           50010000RECIFE              PE202404172232TRS22100000257221
TE000010000022934743693908   NATALIA ROCHA         60150160FORTALEZA           CE202402231206DEV44510000208371
TE000010000023067183213054   CARLOS LIMA           57020480MACEIO              AL202412041441EXT15340000234921
TE000010000023111903594094   FERNANDA SANTOS       66015110BELEM               PA202410221504SAI26680000370091
TE000010000023299032388767   DIEGO NASCIMENTO      59010000NATAL               RN202408080740AUS14540000477042
TE000010000023351340399783   ISABELA FREITAS       50010000RECIFE              PE202405261542EXT16920000013991
TE000010000023483632939702   DIEGO NASCIMENTO      29010330VITORIA             ES202407141332SAI 1360000309271
TE000010000023548185133117860BRUNO FERREIRA        50010000RECIFE              PE202408171853AUS41410000046842
TE000010000023688920302875   THIAGO ARAUJO         60150160FORTALEZA           CE202401181732DEV16210000156121
TE000010000023703606778719   FERNANDA SANTOS       60150160FORTALEZA           CE202411012142SAI31960000212091
TE000010000023871364967451   PATRICIA LIMA         80010010CURITIBA            PR202404272022SAI30110000290581
TE000010000023948825269901   GABRIEL MENDES        80010010CURITIBA            PR202402230952ENT26770000482221
TE000010000024033851576467   MARIA SOUZA           66015110BELEM               PA202407070742AUS44580000006052
TE000010000024183831934650   FERNANDA SANTOS       29010330VITORIA             ES202409051632AUS 5220000162932
TE000010000024245633389234   NATALIA ROCHA         57020480MACEIO              AL202407031017TRS38030000035121
TE000010000024355782638803   FERNANDA SANTOS       60150160FORTALEZA           CE202412121029ENT31920000072151
TE000010000024462869747623   AMANDA RIBEIRO        01310100SAO PAULO           SP202404171741TRS39460000367171
TE000010000024526819319229   RAFAEL RODRIGUES      20040020RIO DE JANEIRO      RJ202412301159EXT19260000091421
TE000010000024606253941854   BRUNO FERREIRA        80010010CURITIBA            PR202405220853DEV14450000208591
TE000010000024783140035630   LUCAS PEREIRA         57020480MACEIO              AL202403222209AUS39890000125032
TE000010000024849047986571   LARISSA CARVALHO      59010000NATAL               RN202409141941SAI 8560000127591
TE000010000024950862868564347DIEGO NASCIMENTO      01310100SAO PAULO           SP202412162252DEV15320000138211
TE000010000025025872894673631DIEGO NASCIMENTO      40020010SALVADOR            BA202405040654DEV25040000253911
TE000010000025172628033649084AMANDA RIBEIRO        60150160FORTALEZA           CE202410190840ENT36480000156981
TE000010000025230310166366   FERNANDA SANTOS       29010330VITORIA             ES202403142217TRS27060000200551
TE000010000025308579622951108PATRICIA LIMA         90010160PORTO ALEGRE        RS202408060802AUS34960000489852
TE000010000025402604690174953GABRIEL MENDES        59010000NATAL               RN202411200958EXT32100000087881
TE000010000025541066788457   JULIANA ALVES         59010000NATAL               RN202403160827TRS 5580000116451
TE000010000025642389354407   PEDRO OLIVEIRA        29010330VITORIA             ES202402040643AUS15050000404052
TE000010000025702305066714   ISABELA FREITAS       80010010CURITIBA            PR202404291342SAI10990000327421
TE000010000025847955412982   PATRICIA LIMA         29010330VITORIA             ES202410231110ENT15730000332691
TE000010000025981520895217   DIEGO NASCIMENTO      90010160PORTO ALEGRE        RS202401020952SAI35160000397981
TE000010000026050507324913   NATALIA ROCHA         60150160FORTALEZA           CE202405020715EXT14820000239451
TE000010000026127496238384403AMANDA RIBEIRO        66015110BELEM               PA202407201716SAI49830000382751
TE000010000026228580330864   ANA COSTA             60150160FORTALEZA           CE202410111941SAI11480000387171
TE000010000026385050487159   JOAO DA SILVA         59010000NATAL               RN202406100935SAI18310000305801
TE000010000026410907444793   LEONARDO BARBOSA      20040020RIO DE JANEIRO      RJ202412200830ENT40680000164771
TE000010000026500345688486   BRUNO FERREIRA        66015110BELEM               PA202409061230TRS23780000392471
TE000010000026660723660474   ANA COSTA             30130110BELO HORIZONTE      MG202401040934ENT16800000285971
TE000010000026738252894043   LEONARDO BARBOSA      40020010SALVADOR            BA202407050925ENT12200000259471
TE000010000026857752668480   LUCAS PEREIRA         66015110BELEM               PA202402201912AUS39490000342912
TE000010000026952481353764298JULIANA ALVES         29010330VITORIA             ES202411091300SAI30310000157501
TE000010000027026088532987   JULIANA ALVES         60150160FORTALEZA           CE202412260605ENT21800000405931
TE000010000027174754737704   LEONARDO BARBOSA      74110010GOIANIA             GO202401211929DEV 6550000395281
TE000010000027265977396103   RAFAEL RODRIGUES      01310100SAO PAULO           SP202406242113AUS45350000477952
TE000010000027308041756943   MARIA SOUZA           50010000RECIFE              PE202403230957EXT42190000432691
TE000010000027477169916587   FERNANDA SANTOS       40020010SALVADOR            BA202407291319ENT10720000021001
TE000010000027557867126572   ISABELA FREITAS       59010000NATAL               RN202402041053DEV10630000108951
TE000010000027689885249919   DIEGO NASCIMENTO      01310100SAO PAULO           SP202411222218ENT29480000443931
TE000010000027755373043763   ANA COSTA             90010160PORTO ALEGRE        RS202406131736AUS41470000014282
TE000010000027816944814400   MARIA SOUZA           88010400FLORIANOPOLIS       SC202405190750AUS31270000268892
TE000010000027931064079729682FERNANDA SANTOS       88010400FLORIANOPOLIS       SC202410142242TRS26020000100831
TE000010000028034497992519   AMANDA RIBEIRO        88010400FLORIANOPOLIS       SC202404091926EXT27350000180781
TE000010000028158783710539   CARLOS LIMA           80010010CURITIBA            PR202411270750AUS41590000301192
TE000010000028253601743040256MARIA SOUZA           01310100SAO PAULO           SP202405300912ENT34500000447001
TE000010000028377527071279   THIAGO ARAUJO         20040020RIO DE JANEIRO      RJ202408121913EXT27680000006071
TE000010000028442729904388   ANA COSTA             50010000RECIFE              PE202407272025SAI14750000287311
TE000010000028554316391584647CARLOS LIMA           80010010CURITIBA            PR202408020752TRS32450000306311
TE000010000028682036906155   MARIA SOUZA           66015110BELEM               PA202404041858ENT20460000168661
TE000010000028797312206676654JOAO DA SILVA         80010010CURITIBA            PR202404291117SAI10330000453251
TE000010000028894353286178   JOAO DA SILVA         80010010CURITIBA            PR202410100815DEV 3620000218181
TE000010000028921367886455   CAMILA MARTINS        30130110BELO HORIZONTE      MG202407280920ENT 3470000288661
TE000010000029055705295086874PATRICIA LIMA         20040020RIO DE JANEIRO      RJ202403051221EXT49060000381771
TE000010000029189625869263   BRUNO FERREIRA        69005010MANAUS              AM202401130724EXT16320000219361
TE000010000029215179751937   GABRIEL MENDES        60150160FORTALEZA           CE202410281613ENT15140000297751
TE000010000029344580197621   LUCAS PEREIRA         60150160FORTALEZA           CE202408010825TRS31850000050421
TE000010000029465322247081   JOAO DA SILVA         20040020RIO DE JANEIRO      RJ202405182244ENT14740000381981
TE000010000029519884089437   PATRICIA LIMA         90010160PORTO ALEGRE        RS202412070951SAI33910000337721
TE000010000029693008058899058MARIA SOUZA           90010160PORTO ALEGRE        RS202403021401SAI18740000185211
TE000010000029705081056358   LARISSA CARVALHO      29010330VITORIA             ES202410290740SAI 9650000154601
TE000010000029816694602124   LARISSA CARVALHO      50010000RECIFE              PE202408041409DEV10400000097661
TE000010000029959836207498   ISABELA FREITAS       29010330VITORIA             ES202405141638ENT15100000254791
TE000010000030092033146565716DIEGO NASCIMENTO      80010010CURITIBA            PR202409082240ENT18290000014871
TE000010000030199504389641   DIEGO NASCIMENTO      60150160FORTALEZA           CE202406290733AUS12810000474552
TE000010000030295322307248   AMANDA RIBEIRO        69005010MANAUS              AM202405100958SAI34850000064701
TE000010000030395574586180   BRUNO FERREIRA        59010000NATAL               RN202409151236SAI26580000023681
TE000010000030454427885988   ANA COSTA             74110010GOIANIA             GO202403290627DEV32380000244371
TE000010000030532596276223   LARISSA CARVALHO      90010160PORTO ALEGRE        RS202404300851SAI39500000223121
TE000010000030641839955780   FERNANDA SANTOS       57020480MACEIO              AL202403092201ENT38220000325801
TE000010000030706294502694473CAMILA MARTINS        66015110BELEM               PA202404191406EXT24090000456461
TE000010000030810323186679   MARIA SOUZA           57020480MACEIO              AL202408051940AUS22050000308472
TE000010000030920110408384   JULIANA ALVES         88010400FLORIANOPOLIS       SC202408271125ENT 7950000421011
TE000010000031077953342253   LEONARDO BARBOSA      40020010SALVADOR            BA202411111008TRS11490000235981
TE000010000031177727745750   FERNANDA SANTOS       20040020RIO DE JANEIRO      RJ202412032233TRS16290000061101
TE000010000031248460363839687ISABELA FREITAS       59010000NATAL               RN202409151511ENT24370000302851
TE000010000031398358947706   LEONARDO BARBOSA      88010400FLORIANOPOLIS       SC202405051133TRS20770000085721
TE000010000031402546167946   THIAGO ARAUJO         66015110BELEM               PA202408192242ENT43580000499191
TE000010000031563613959459   CARLOS LIMA           88010400FLORIANOPOLIS       SC202402030945DEV28460000490421
TE000010000031635019473779   LARISSA CARVALHO      30130110BELO HORIZONTE      MG202407241232DEV32050000231391
TE000010000031799779178220   MARIA SOUZA           90010160PORTO ALEGRE        RS202411260901ENT 8980000486501
TE000010000031886690625157   BRUNO FERREIRA        74110010GOIANIA             GO202406230916DEV 4500000370311
TE000010000031971080045872   RAFAEL RODRIGUES      30130110BELO HORIZONTE      MG202412031130EXT25000000472311
TE000010000032066529483051   THIAGO ARAUJO         20040020RIO DE JANEIRO      RJ202410272009EXT28180000041901
TE000010000032134335367577773RAFAEL RODRIGUES      57020480MACEIO              AL202403071851TRS44580000315951
TE000010000032231049791407   AMANDA RIBEIRO        20040020RIO DE JANEIRO      RJ202411181155DEV 3440000270621
TE000010000032399074666974721THIAGO ARAUJO         20040020RIO DE JANEIRO      RJ202403281549SAI31160000255621
TE000010000032430325369525   BRUNO FERREIRA        90010160PORTO ALEGRE        RS202408161831SAI27220000477951
TE000010000032581072839476461FERNANDA SANTOS       66015110BELEM               PA202407120816DEV17760000430081
TE000010000032631962756443   LEONARDO BARBOSA      59010000NATAL               RN202401201604EXT28590000257711
TE000010000032763006362105   PEDRO OLIVEIRA        69005010MANAUS              AM202405120728DEV38870000485591
TE000010000032804811353739   LARISSA CARVALHO      80010010CURITIBA            PR202403222159EXT14360000390391
TE000010000032986777055489   LEONARDO BARBOSA      88010400FLORIANOPOLIS       SC202401192105SAI49150000396591
TE000010000033091548270029   JULIANA ALVES         40020010SALVADOR            BA202412220913SAI33030000333781
TE000010000033174602136884   PEDRO OLIVEIRA        80010010CURITIBA            PR202409122105EXT12090000486171
TE000010000033218425195617   LARISSA CARVALHO      66015110BELEM               PA202407051635DEV13820000101671
TE000010000033355285870630   CARLOS LIMA           29010330VITORIA             ES202403161138SAI20290000233841
TE000010000033487897153596   PATRICIA LIMA         50010000RECIFE              PE202403211933EXT26370000483341
TE000010000033564550728310   ANA COSTA             90010160PORTO ALEGRE        RS202406290733DEV 5020000353791
TE000010000033664505810580   ANA COSTA             01310100SAO PAULO           SP202410141931DEV41290000170391
TE000010000033761937886636   PATRICIA LIMA         69005010MANAUS              AM202406181359SAI20160000196831
TE000010000033874963379226   FERNANDA SANTOS       90010160PORTO ALEGRE        RS202402280822ENT15850000143241
TE000010000033938734505219   PATRICIA LIMA         01310100SAO PAULO           SP202406120616AUS11690000492532
TE000010000034097962914597   THIAGO ARAUJO         40020010SALVADOR            BA202407281801DEV44630000492221
TE000010000034159198174736   LARISSA CARVALHO      80010010CURITIBA            PR202404142041DEV44180000229421
TE000010000034248955713198   RAFAEL RODRIGUES      60150160FORTALEZA           CE202405151804AUS20910000369942
TE000010000034357477743721   CARLOS LIMA           40020010SALVADOR            BA202409161432AUS37400000241952
TE000010000034419189875579   ISABELA FREITAS       59010000NATAL               RN202404231046SAI49710000026531
TE000010000034500590545173   DIEGO NASCIMENTO      80010010CURITIBA            PR202410081718ENT27420000477991
TE000010000034693442462712   LUCAS PEREIRA         74110010GOIANIA             GO202404291356ENT34290000220351
TE000010000034753597598096   FERNANDA SANTOS       90010160PORTO ALEGRE        RS202404050938AUS 1000000344292
TE000010000034875788273763   MARIA SOUZA           74110010GOIANIA             GO202408282014DEV43220000474961
TE000010000034966609797855   JOAO DA SILVA         29010330VITORIA             ES202401291517TRS 4790000290771
TE000010000035096290107932   CARLOS LIMA           69005010MANAUS              AM202407011028DEV13970000226511
TE000010000035130594156711   THIAGO ARAUJO         50010000RECIFE              PE202406121237DEV37230000107861
TE000010000035258198708840   AMANDA RIBEIRO        80010010CURITIBA            PR202412301648SAI46100000001451
TE000010000035365972683950   THIAGO ARAUJO         88010400FLORIANOPOLIS       SC202412230622ENT16550000029781
TE000010000035467212815683   ISABELA FREITAS       50010000RECIFE              PE202401151130DEV28320000147051
TE000010000035582149241371   AMANDA RIBEIRO        40020010SALVADOR            BA202401021944SAI47390000023161
TE000010000035685830684836   GABRIEL MENDES        57020480MACEIO              AL202403041928SAI17290000351091
TE000010000035756067755957   JULIANA ALVES         88010400FLORIANOPOLIS       SC202406161506ENT27080000488271
TE000010000035877250402589   GABRIEL MENDES        90010160PORTO ALEGRE        RS202402030640DEV27220000213211
TE000010000035923578457208   JOAO DA SILVA         30130110BELO HORIZONTE      MG202405270901TRS 8010000242381
TE000010000036074931660816115CAMILA MARTINS        66015110BELEM               PA202407141905SAI24300000010901
TE000010000036175000458408   LEONARDO BARBOSA      30130110BELO HORIZONTE      MG202403072101AUS47750000408262
TE000010000036264949356580   JULIANA ALVES         29010330VITORIA             ES202412011813DEV18820000264401
TE000010000036322455817083   JULIANA ALVES         80010010CURITIBA            PR202402031555EXT16070000170801
TE000010000036496639000453   LEONARDO BARBOSA      57020480MACEIO              AL202412290617EXT46060000498461
TE000010000036567251409617   MARIA SOUZA           74110010GOIANIA             GO202410232228SAI 7020000326241
TE000010000036698166881303   ISABELA FREITAS       60150160FORTALEZA           CE202407130943SAI46010000062861
TE000010000036716454662573   ANA COSTA             30130110BELO HORIZONTE      MG202406271326ENT11420000289251
TE000010000036887622957947   RAFAEL RODRIGUES      80010010CURITIBA            PR202401200740DEV42410000404281
TE000010000036917331571604   FERNANDA SANTOS       69005010MANAUS              AM202402121453TRS37680000057381
TE000010000037050441526445   GABRIEL MENDES        88010400FLORIANOPOLIS       SC202411201038AUS49820000187302
TE000010000037154191378049   GABRIEL MENDES        50010000RECIFE              PE202408071001DEV16510000358861
TE000010000037273965242760   AMANDA RIBEIRO        60150160FORTALEZA           CE202412030919AUS22420000499972
TE000010000037302613534255   BRUNO FERREIRA        69005010MANAUS              AM202402141209AUS13480000057852
TE000010000037441551095425   CARLOS LIMA           59010000NATAL               RN202409031600TRS33920000354651
TE000010000037508482072712   DIEGO NASCIMENTO      40020010SALVADOR            BA202404151502EXT16100000430291
TE000010000037678132672733   CARLOS LIMA           57020480MACEIO              AL202407281028AUS36180000287682
TE000010000037795881946877   PATRICIA LIMA         74110010GOIANIA             GO202412171036TRS22990000397861
TE000010000037813675726684   NATALIA ROCHA         57020480MACEIO              AL202401031614AUS35620000287792
TE000010000037932031613177   NATALIA ROCHA         01310100SAO PAULO           SP202406231319ENT17980000363441
TE000010000038033315180166   RAFAEL RODRIGUES      90010160PORTO ALEGRE        RS202401061115AUS12070000352412
TE000010000038119388953115439AMANDA RIBEIRO        90010160PORTO ALEGRE        RS202402181731SAI22300000056741
TE000010000038291066086236   CAMILA MARTINS        01310100SAO PAULO           SP202405281802SAI34610000427961
TE000010000038324789225182613BRUNO FERREIRA        01310100SAO PAULO           SP202407311004ENT44360000189451
TE000010000038457997062981099AMANDA RIBEIRO        66015110BELEM               PA202406301155AUS44490000259292
TE000010000038550836816821   PATRICIA LIMA         01310100SAO PAULO           SP202408141330SAI 5410000344361
TE000010000038671439039092   JOAO DA SILVA         57020480MACEIO              AL202401271654EXT33040000116051
TE000010000038707024748579   GABRIEL MENDES        88010400FLORIANOPOLIS       SC202409302239SAI 6170000151411
TE000010000038838152293229725RAFAEL RODRIGUES      01310100SAO PAULO           SP202402271537EXT21380000360881
TE000010000038947543188645   NATALIA ROCHA         60150160FORTALEZA           CE202408200703AUS48020000113832
TE000010000039046366983755   CAMILA MARTINS        66015110BELEM               PA202401091453TRS45570000159911
TE000010000039150077099031   THIAGO ARAUJO         29010330VITORIA             ES202403150940ENT19590000237611
TE000010000039280433315696   RAFAEL RODRIGUES      01310100SAO PAULO           SP202402290705TRS34230000020311
TE000010000039393352062260931DIEGO NASCIMENTO      88010400FLORIANOPOLIS       SC202405211048AUS33650000148582
TE000010000039461408231017   PEDRO OLIVEIRA        88010400FLORIANOPOLIS       SC202408170938DEV25170000207371
TE000010000039540519950819   JOAO DA SILVA         01310100SAO PAULO           SP202406191949AUS20060000417912
TE000010000039663595176352   RAFAEL RODRIGUES      20040020RIO DE JANEIRO      RJ202405020609EXT16210000345541
TE000010000039767106656024   LEONARDO BARBOSA      30130110BELO HORIZONTE      MG202404081756AUS37060000290842
TE000010000039849057175322   AMANDA RIBEIRO        59010000NATAL               RN202412152144EXT29490000106961
TE000010000039915878989168   JULIANA ALVES         20040020RIO DE JANEIRO      RJ202409010920ENT 8660000043701
TE000010000040041248454673   PEDRO OLIVEIRA        57020480MACEIO              AL202412101228ENT39490000467891
TE000010000040190669545085   AMANDA RIBEIRO        88010400FLORIANOPOLIS       SC202401031216ENT11010000425671
TE000010000040217617061301   ANA COSTA             66015110BELEM               PA202403052013DEV19150000059291
TE000010000040381720357965   LARISSA CARVALHO      60150160FORTALEZA           CE202401070604DEV 6220000436271
TE000010000040454260782411   LARISSA CARVALHO      59010000NATAL               RN202405231217EXT15130000198541
TE000010000040511475466248   CARLOS LIMA           30130110BELO HORIZONTE      MG202404270741AUS25070000082762
TE000010000040616846038951   BRUNO FERREIRA        74110010GOIANIA             GO202403171317EXT35610000256181
TE000010000040717464533164   LEONARDO BARBOSA      29010330VITORIA             ES202406100627ENT27500000423081
TE000010000040811371346310   AMANDA RIBEIRO        90010160PORTO ALEGRE        RS202411020740AUS44870000280642
TE000010000040957601883041   BRUNO FERREIRA        66015110BELEM               PA202405221531TRS41820000157571
TE000010000041035973697016   GABRIEL MENDES        29010330VITORIA             ES202407031053TRS20770000050131
TE000010000041175040937011   GABRIEL MENDES        80010010CURITIBA            PR202411141835DEV37670000176071
TE000010000041295290550957   LEONARDO BARBOSA      30130110BELO HORIZONTE      MG202409140833TRS37610000478361
TE000010000041368063992416119CAMILA MARTINS        59010000NATAL               RN202405170751EXT32230000116321
TE000010000041489088068311   CARLOS LIMA           66015110BELEM               PA202403012059DEV28210000394961
TE000010000041582233125677250LUCAS PEREIRA         90010160PORTO ALEGRE        RS202406251907AUS15320000451582
TE000010000041614134277323   BRUNO FERREIRA        66015110BELEM               PA202409081344AUS21830000117892
TE000010000041714209420793   AMANDA RIBEIRO        60150160FORTALEZA           CE202402271741DEV38300000042921
TE000010000041894250592530   LEONARDO BARBOSA      80010010CURITIBA            PR202407022131DEV19320000259111
TE000010000041927379572381   LARISSA CARVALHO      66015110BELEM               PA202402061037SAI 7960000156861
TE000010000042011330107535   MARIA SOUZA           30130110BELO HORIZONTE      MG202405131836TRS44030000188971
TE000010000042112322232087   JULIANA ALVES         90010160PORTO ALEGRE        RS202406132103EXT48140000199491
TE000010000042213708587837   NATALIA ROCHA         30130110BELO HORIZONTE      MG202403041307AUS46370000121762
TE000010000042308099371519317ISABELA FREITAS       60150160FORTALEZA           CE202405181334ENT17160000291151
TE000010000042473811337049   RAFAEL RODRIGUES      69005010MANAUS              AM202403271553TRS26650000202231
TE000010000042570053558823481ANA COSTA             29010330VITORIA             ES202409180642DEV15670000370041
TE000010000042638502847798   FERNANDA SANTOS       80010010CURITIBA            PR202409202147TRS18950000304411
TE000010000042756415330706667MARIA SOUZA           66015110BELEM               PA202412051813SAI 8420000065451
TE000010000042816119553093   AMANDA RIBEIRO        40020010SALVADOR            BA202402281216EXT 5670000150971
TE000010000042991703793061   ISABELA FREITAS       74110010GOIANIA             GO202403110757ENT24490000243181
TE000010000043007216247424   LARISSA CARVALHO      90010160PORTO ALEGRE        RS202405182115SAI30500000210541
TE000010000043165299053679120THIAGO ARAUJO         30130110BELO HORIZONTE      MG202401181730DEV 2850000153451
TE000010000043250819968445   LARISSA CARVALHO      80010010CURITIBA            PR202412262047EXT45120000052061
TE000010000043374420540515   BRUNO FERREIRA        69005010MANAUS              AM202409041400DEV15270000031781
TE000010000043467599300134140CAMILA MARTINS        88010400FLORIANOPOLIS       SC202411180724EXT40210000012521
TE000010000043544654840000   PATRICIA LIMA         01310100SAO PAULO           SP202401121545AUS21870000235132
TE000010000043676834875256   JOAO DA SILVA         60150160FORTALEZA           CE202410091055TRS33460000278521
TE000010000043776013807951181FERNANDA SANTOS       66015110BELEM               PA202402241822SAI31540000039241
TE000010000043815959043150   THIAGO ARAUJO         59010000NATAL               RN202402062116ENT36450000448111
TE000010000043976310323197   DIEGO NASCIMENTO      50010000RECIFE              PE202401301123TRS31780000065301
TE000010000044044469645892   RAFAEL RODRIGUES      66015110BELEM               PA202406060842DEV19670000121381
TE000010000044111372447929   THIAGO ARAUJO         88010400FLORIANOPOLIS       SC202406150845TRS25520000347511
TE000010000044294009465846   JULIANA ALVES         57020480MACEIO              AL202410231041EXT24690000367231
TE000010000044387807376764   LEONARDO BARBOSA      50010000RECIFE              PE202404152033ENT27340000162681
TE000010000044425191871628   LEONARDO BARBOSA      50010000RECIFE              PE202406052027AUS36430000278592
TE000010000044560919193526   RAFAEL RODRIGUES      30130110BELO HORIZONTE      MG202406241207AUS36650000379692
TE000010000044608567591056   LUCAS PEREIRA         29010330VITORIA             ES202410291931ENT25820000181841
TE000010000044777140577025   JOAO DA SILVA         88010400FLORIANOPOLIS       SC202402131723TRS21970000404811
TE000010000044899857525637   RAFAEL RODRIGUES      57020480MACEIO              AL202405161422TRS28590000464991
TE000010000044976633542050   LEONARDO BARBOSA      57020480MACEIO              AL202406231249ENT37800000105211
TE000010000045072827695887   MARIA SOUZA           88010400FLORIANOPOLIS       SC202410111453SAI35920000264161
TE000010000045166980276448294LUCAS PEREIRA         88010400FLORIANOPOLIS       SC202407030703AUS33610000067242
TE000010000045237778424716   PATRICIA LIMA         74110010GOIANIA             GO202402030924SAI36080000381381
TE000010000045372592501691   CAMILA MARTINS        69005010MANAUS              AM202411092133ENT40350000409521
TE000010000045430700813349   JOAO DA SILVA         30130110BELO HORIZONTE      MG202404162119SAI15560000283241
TE000010000045524941801695   NATALIA ROCHA         74110010GOIANIA             GO202403010941EXT15290000375101
TE000010000045664031182879   ANA COSTA             60150160FORTALEZA           CE202408101737TRS 8850000053811
TE000010000045703390596669   RAFAEL RODRIGUES      30130110BELO HORIZONTE      MG202404211552SAI46680000442801
TE000010000045875428846377   JULIANA ALVES         60150160FORTALEZA           CE202411171603EXT20950000006371
TE000010000045927721793162   CAMILA MARTINS        01310100SAO PAULO           SP202406171712SAI35770000290661
TE000010000046024483726877   LEONARDO BARBOSA      57020480MACEIO              AL202405032256EXT44130000373151
TE000010000046191286728774   AMANDA RIBEIRO        29010330VITORIA             ES202410021858DEV 7830000034081
TE000010000046276296965241   BRUNO FERREIRA        50010000RECIFE              PE202404220842DEV 5110000092221
TE000010000046304107191294337MARIA SOUZA           57020480MACEIO              AL202404021923AUS44340000065332
TE000010000046463550193531   PEDRO OLIVEIRA        01310100SAO PAULO           SP202402281632TRS31250000259301
TE000010000046531370017493   PEDRO OLIVEIRA        57020480MACEIO              AL202408181726ENT41930000152841
TE000010000046617373397010149FERNANDA SANTOS       69005010MANAUS              AM202403210852DEV13940000104391
TE000010000046740061386549   LARISSA CARVALHO      57020480MACEIO              AL202407250710EXT26640000055711
TE000010000046843580471180   MARIA SOUZA           60150160FORTALEZA           CE202406220705TRS20850000045901
TE000010000046995960276934   AMANDA RIBEIRO        50010000RECIFE              PE202411061926ENT27810000168211
TE000010000047056257504224   DIEGO NASCIMENTO      59010000NATAL               RN202405130724DEV22580000434451
TE000010000047186175418277   ANA COSTA             29010330VITORIA             ES202402291535DEV 8950000250791
TE000010000047280197557082678DIEGO NASCIMENTO      59010000NATAL               RN202406150716TRS24730000059901
TE000010000047342942670880   CAMILA MARTINS        59010000NATAL               RN202401230821ENT19620000287211
TE000010000047462684970424   PEDRO OLIVEIRA        69005010MANAUS              AM202410152207TRS13270000003651
TE000010000047568170068143   LARISSA CARVALHO      80010010CURITIBA            PR202410222109EXT19480000390571
TE000010000047676610541715   MARIA SOUZA           01310100SAO PAULO           SP202409101900ENT38450000227971
TE000010000047718007784284   CAMILA MARTINS        80010010CURITIBA            PR202408211906DEV36050000316661
TE000010000047806672192283   PATRICIA LIMA         74110010GOIANIA             GO202403011413ENT49480000098981
TE000010000047927259783367408LEONARDO BARBOSA      20040020RIO DE JANEIRO      RJ202403280722DEV48840000175371
TE000010000048076988012256   CARLOS LIMA           01310100SAO PAULO           SP202409291226ENT 2190000366571
TE000010000048125701620637   MARIA SOUZA           40020010SALVADOR            BA202407091639TRS 9650000208431
TE000010000048276166296586360CARLOS LIMA           29010330VITORIA             ES202407031355AUS43060000319932
TE000010000048320922545080694JOAO DA SILVA         74110010GOIANIA             GO202408122052SAI46780000326381
TE000010000048483410006658   PATRICIA LIMA         90010160PORTO ALEGRE        RS202405271354EXT47160000151671
TE000010000048504603560897   MARIA SOUZA           69005010MANAUS              AM202405211330TRS 1430000186531
TE000010000048690583047027   GABRIEL MENDES        74110010GOIANIA             GO202401131154AUS35850000172282
TE000010000048730050198575   PATRICIA LIMA         50010000RECIFE              PE202404172249ENT45390000185301
TE000010000048840628285072553FERNANDA SANTOS       01310100SAO PAULO           SP202407081034TRS 6970000209451
TE000010000048901352471178   GABRIEL MENDES        50010000RECIFE              PE202412101700EXT30600000080001
TE000010000049091841805141   CARLOS LIMA           01310100SAO PAULO           SP202401022116EXT 4410000180121
TE000010000049151569933276   NATALIA ROCHA         30130110BELO HORIZONTE      MG202407141428SAI42850000305041
TE000010000049230925239060   CAMILA MARTINS        69005010MANAUS              AM202404111951ENT36950000053051
TE000010000049313739491258193LARISSA CARVALHO      69005010MANAUS              AM202410231555SAI36280000194951
TE000010000049465314594568   ANA COSTA             80010010CURITIBA            PR202401171606TRS32250000459561
TE000010000049518798976330   CARLOS LIMA           40020010SALVADOR            BA202401051409SAI20710000145501
TE000010000049683196025092   AMANDA RIBEIRO        01310100SAO PAULO           SP202405120601TRS21080000358001
TE000010000049766847072602   THIAGO ARAUJO         80010010CURITIBA            PR202409012238AUS35940000132732
TE000010000049805373808823   LUCAS PEREIRA         57020480MACEIO              AL202401232001ENT48570000355211
TE000010000049977075186210986LUCAS PEREIRA         69005010MANAUS              AM202408232259EXT15240000331271
TE000010000050016896006688   PEDRO OLIVEIRA        57020480MACEIO              AL202403222137ENT26520000476381
TE000010000050152846580681   THIAGO ARAUJO         74110010GOIANIA             GO202403091140TRS 9260000436351
TE000010000050279703108083   RAFAEL RODRIGUES      90010160PORTO ALEGRE        RS202401031756EXT22170000168691
TE000010000050378904833465   ISABELA FREITAS       69005010MANAUS              AM202412202058EXT12090000253551
TE000010000050413180666405997PATRICIA LIMA         40020010SALVADOR            BA202411230633AUS46520000005642
TE000010000050537825371268   GABRIEL MENDES        50010000RECIFE              PE202401121557ENT28330000209731
TE000010000050613731421756   CARLOS LIMA           60150160FORTALEZA           CE202409031446TRS21170000128701
TE000010000050778273059766   CARLOS LIMA           01310100SAO PAULO           SP202409271552ENT37080000341341
TE000010000050864015774662   ANA COSTA             74110010GOIANIA             GO202411102132EXT26930000280121
TE000010000050925542458667   FERNANDA SANTOS       74110010GOIANIA             GO202404010729SAI12080000470951
TE000010000051094060154138   FERNANDA SANTOS       50010000RECIFE              PE202404291942DEV44050000143281
TE000010000051192389862254   LARISSA CARVALHO      66015110BELEM               PA202409131911DEV34770000282281
TE000010000051203565748084   LUCAS PEREIRA         50010000RECIFE              PE202411290845TRS48480000105461
TE000010000051373506001266   PATRICIA LIMA         59010000NATAL               RN202407180737AUS 7180000186602
TE000010000051409100916659   BRUNO FERREIRA        60150160FORTALEZA           CE202406221559EXT21360000025391
TE000010000051578462742052258LEONARDO BARBOSA      90010160PORTO ALEGRE        RS202408221203AUS17240000103442
TE000010000051665691070861171LUCAS PEREIRA         66015110BELEM               PA202405090640SAI30290000021971
TE000010000051764227643494   LARISSA CARVALHO      80010010CURITIBA            PR202403121943EXT30170000039891
TE000010000051834774116028   CAMILA MARTINS        88010400FLORIANOPOLIS       SC202410201712EXT46000000352241
TE000010000051955987592041   CAMILA MARTINS        57020480MACEIO              AL202406141150DEV14490000499841
TE000010000052016430329774   PATRICIA LIMA         66015110BELEM               PA202405271314EXT12910000388721
TE000010000052157867404772   RAFAEL RODRIGUES      66015110BELEM               PA202411211846TRS40380000098521
TE000010000052283419067100   NATALIA ROCHA         74110010GOIANIA             GO202408141518SAI42600000108161
TE000010000052331642128265   GABRIEL MENDES        80010010CURITIBA            PR202411052149ENT15740000186241
TE000010000052410557999158   RAFAEL RODRIGUES      40020010SALVADOR            BA202405151757AUS29690000076662
TE000010000052534344070806   LUCAS PEREIRA         20040020RIO DE JANEIRO      RJ202405021639EXT24950000156401
TE000010000052678459073128   FERNANDA SANTOS       20040020RIO DE JANEIRO      RJ202411220950ENT15940000257851
TE000010000052721815447889   LUCAS PEREIRA         29010330VITORIA             ES202408252003AUS 5770000242432
TE000010000052870950626327   DIEGO NASCIMENTO      30130110BELO HORIZONTE      MG202405101208AUS28410000296882
TE000010000052979804707893798AMANDA RIBEIRO        50010000RECIFE              PE202412051610EXT16630000406531
TE000010000053063691845441   LEONARDO BARBOSA      90010160PORTO ALEGRE        RS202412101332TRS38050000470681
TE000010000053128262901651   BRUNO FERREIRA        74110010GOIANIA             GO202410221610AUS24270000292502
TE000010000053287155333179   JULIANA ALVES         20040020RIO DE JANEIRO      RJ202412061241TRS41550000215921
TE000010000053319617650210   JOAO DA SILVA         29010330VITORIA             ES202401231131DEV35740000201641
TE000010000053495870051253   GABRIEL MENDES        57020480MACEIO              AL202411290755EXT35550000126661
TE000010000053505376932879274DIEGO NASCIMENTO      29010330VITORIA             ES202404051125DEV39970000207911
TE000010000053615243872075793ANA COSTA             60150160FORTALEZA           CE202411291516EXT22920000075391
TE000010000053796459624384   JOAO DA SILVA         74110010GOIANIA             GO202403132128EXT 7090000232481
TE000010000053836850705182   CAMILA MARTINS        20040020RIO DE JANEIRO      RJ202411260950ENT16680000058751
TE000010000053967207591445   LARISSA CARVALHO      69005010MANAUS              AM202402091951AUS38610000449772
TE000010000054001504340102   DIEGO NASCIMENTO      66015110BELEM               PA202407091629AUS25910000302402
TE000010000054165732977410   BRUNO FERREIRA        01310100SAO PAULO           SP202408092220DEV 2720000493031
TE000010000054223309462147   JOAO DA SILVA         59010000NATAL               RN202408020953AUS28390000144372
TE000010000054373053428907   GABRIEL MENDES        20040020RIO DE JANEIRO      RJ202411211909DEV17580000040901
TE000010000054461507106616   NATALIA ROCHA         01310100SAO PAULO           SP202404221954AUS 5720000217352
TE000010000054541179779631   NATALIA ROCHA         74110010GOIANIA             GO202405251928ENT47500000407581
TE000010000054608749612298   JULIANA ALVES         01310100SAO PAULO           SP202409192134DEV26470000466711
TE000010000054798882437596   GABRIEL MENDES        88010400FLORIANOPOLIS       SC202407191911AUS21770000329132
TE000010000054830097154759501LUCAS PEREIRA         59010000NATAL               RN202404201828SAI 8190000043011
TE000010000054967814082824   DIEGO NASCIMENTO      60150160FORTALEZA           CE202411070941SAI37810000052251
TE000010000055050942315963   AMANDA RIBEIRO        90010160PORTO ALEGRE        RS202402131307EXT 6130000238921
TE000010000055113690047904644NATALIA ROCHA         60150160FORTALEZA           CE202401311743DEV 6310000215351
TE000010000055239427891192689MARIA SOUZA           01310100SAO PAULO           SP202411152254AUS 5090000419752
TE000010000055381441666117   THIAGO ARAUJO         66015110BELEM               PA202403181410ENT34520000307221
TE000010000055405858240497795AMANDA RIBEIRO        30130110BELO HORIZONTE      MG202405250602SAI 5810000129291
TE000010000055518617598962249PATRICIA LIMA         66015110BELEM               PA202408271916EXT 9230000399781
TE000010000055658325199010   CARLOS LIMA           59010000NATAL               RN202407251313TRS11960000094971
TE000010000055777085942682   JULIANA ALVES         74110010GOIANIA             GO202412031747TRS22620000130091
TE000010000055848213801155   AMANDA RIBEIRO        69005010MANAUS              AM202411041449ENT31360000067271
TE000010000055985532375083   NATALIA ROCHA         50010000RECIFE              PE202405040929TRS14660000209561
TE000010000056032434213957965LARISSA CARVALHO      30130110BELO HORIZONTE      MG202410090631SAI19240000244961
TE000010000056164558048294078FERNANDA SANTOS       90010160PORTO ALEGRE        RS202407131123EXT29450000341811
TE000010000056229370625873   DIEGO NASCIMENTO      01310100SAO PAULO           SP202409250723TRS45110000087141
TE000010000056326231675011   CAMILA MARTINS        40020010SALVADOR            BA202403102047ENT18610000197091
TE000010000056447756886371   JULIANA ALVES         50010000RECIFE              PE202410292100DEV 3540000452391
TE000010000056553828981223   NATALIA ROCHA         69005010MANAUS              AM202406182044EXT30790000127961
TE000010000056676445125622   CARLOS LIMA           01310100SAO PAULO           SP202410041250TRS34410000168021
TE000010000056729961380718   DIEGO NASCIMENTO      01310100SAO PAULO           SP202408091238DEV22540000222731
TE000010000056868382921629860PATRICIA LIMA         88010400FLORIANOPOLIS       SC202404042132TRS41580000069341
TE000010000056936305695625   MARIA SOUZA           66015110BELEM               PA202410241839TRS 7000000091861
TE000010000057028889908886   JOAO DA SILVA         90010160PORTO ALEGRE        RS202402050856ENT38710000065181
TE000010000057123603680858   GABRIEL MENDES        60150160FORTALEZA           CE202405131413AUS12000000074002
TE000010000057226776383191   GABRIEL MENDES        01310100SAO PAULO           SP202406041332TRS20710000030571
TE000010000057379756842181   ISABELA FREITAS       29010330VITORIA             ES202401170851DEV39700000183021
TE000010000057491311265974   DIEGO NASCIMENTO      01310100SAO PAULO           SP202404210708EXT18400000070051
TE000010000057578170423275888PEDRO OLIVEIRA        59010000NATAL               RN202402101639SAI 2980000271651
TE000010000057641652726189   ANA COSTA             01310100SAO PAULO           SP202410211714ENT 4480000012191
TE000010000057717925136223   ISABELA FREITAS       66015110BELEM               PA202401100813EXT37760000020961
TE000010000057898194014696136MARIA SOUZA           57020480MACEIO              AL202408262109AUS13830000023802
TE000010000057945098063533   LUCAS PEREIRA         80010010CURITIBA            PR202401140925EXT16350000276041
TE000010000058010494617305151LUCAS PEREIRA         40020010SALVADOR            BA202412021001DEV33420000290401
TE000010000058192407413596   LARISSA CARVALHO      80010010CURITIBA            PR202405021336ENT19210000251581
TE000010000058285743391958   JOAO DA SILVA         88010400FLORIANOPOLIS       SC202401060650DEV25440000066821
TE000010000058367501468314   DIEGO NASCIMENTO      80010010CURITIBA            PR202401030614DEV21940000414921
TE000010000058455846420181   NATALIA ROCHA         01310100SAO PAULO           SP202403121210ENT 8770000245951
TE000010000058519889060917   CAMILA MARTINS        01310100SAO PAULO           SP202408211607EXT48380000105851
TE000010000058677504616228   PATRICIA LIMA         40020010SALVADOR            BA202411051922AUS45060000487242
TE000010000058787202048710   JULIANA ALVES         69005010MANAUS              AM202412101614TRS40960000246801
TE000010000058814427197453   PEDRO OLIVEIRA        59010000NATAL               RN202405311737TRS30090000010041
TE000010000058900290695473   BRUNO FERREIRA        69005010MANAUS              AM202405101051AUS12380000388952
TE000010000059061090982450   GABRIEL MENDES        20040020RIO DE JANEIRO      RJ202405151942TRS37200000027001
TE000010000059136074170602252BRUNO FERREIRA        80010010CURITIBA            PR202404130812TRS 8640000294981
TE000010000059228095417540   ANA COSTA             69005010MANAUS              AM202405062039ENT29750000360031
TE000010000059328173933969   ANA COSTA             01310100SAO PAULO           SP202410051151DEV35670000427111
TE000010000059456120646467   DIEGO NASCIMENTO      60150160FORTALEZA           CE202408251724SAI28100000031281
TE000010000059550143999257   JOAO DA SILVA         57020480MACEIO              AL202410241132AUS10810000005422
TE000010000059655143825520328LARISSA CARVALHO      80010010CURITIBA            PR202410150934ENT47100000346741
TE000010000059752839053067308JULIANA ALVES         29010330VITORIA             ES202401281335DEV24710000012161
TE000010000059867769219105071LEONARDO BARBOSA      50010000RECIFE              PE202401181731TRS26110000228291
TE000010000059940691438767   LUCAS PEREIRA         90010160PORTO ALEGRE        RS202411251515ENT27000000488311
TE000010000060067695979296   FERNANDA SANTOS       88010400FLORIANOPOLIS       SC202407281310EXT39980000143151
TE000010000060143703919056651RAFAEL RODRIGUES      20040020RIO DE JANEIRO      RJ202412161319SAI 2720000293811
TE000010000060232987681605   PEDRO OLIVEIRA        74110010GOIANIA             GO202402222150ENT14110000446101
TE000010000060336374373801   LUCAS PEREIRA         20040020RIO DE JANEIRO      RJ202409261412TRS 7140000123491
TE000010000060471682611147   DIEGO NASCIMENTO      57020480MACEIO              AL202403280628SAI21910000302291
TE000010000060535414556473   PEDRO OLIVEIRA        66015110BELEM               PA202402201832DEV27770000388271
TE000010000060663700889438301PATRICIA LIMA         90010160PORTO ALEGRE        RS202412071730DEV 9520000265151
TE000010000060760880418902   PATRICIA LIMA         60150160FORTALEZA           CE202407241135DEV14960000283261
TE000010000060834608736314931GABRIEL MENDES        20040020RIO DE JANEIRO      RJ202404072058SAI13420000386311
TE000010000060980450308349   ANA COSTA             66015110BELEM               PA202402111818AUS34780000167162
TE000010000061073868133722   AMANDA RIBEIRO        29010330VITORIA             ES202412220935ENT30800000226331
TE000010000061192588302136   AMANDA RIBEIRO        20040020RIO DE JANEIRO      RJ202407270741SAI21010000330071
TE000010000061278760287490   AMANDA RIBEIRO        30130110BELO HORIZONTE      MG202407301433DEV 6810000002491
TE000010000061303916781288   JULIANA ALVES         50010000RECIFE              PE202411081338EXT45240000215571
TE000010000061493082278146   LEONARDO BARBOSA      80010010CURITIBA            PR202405071615AUS49330000338542
TE000010000061532072486115   LARISSA CARVALHO      29010330VITORIA             ES202412101114ENT32850000326561
TE000010000061619467014128   JOAO DA SILVA         60150160FORTALEZA           CE202405302006SAI 4040000368201
TE000010000061762487485623   THIAGO ARAUJO         90010160PORTO ALEGRE        RS202411271944ENT40290000145071
TE000010000061827760639513   LARISSA CARVALHO      90010160PORTO ALEGRE        RS202410180727TRS39870000191211
TE000010000061969843663375618RAFAEL RODRIGUES      80010010CURITIBA            PR202404231630AUS40450000468232
TE000010000062085929458361   ISABELA FREITAS       66015110BELEM               PA202409191228TRS26560000354761
TE000010000062123960424450   FERNANDA SANTOS       80010010CURITIBA            PR202407182140ENT13730000078991
TE000010000062282959881610   JULIANA ALVES         50010000RECIFE              PE202407291248SAI49250000191201
TE000010000062380437412698086BRUNO FERREIRA        80010010CURITIBA            PR202403020633AUS 9320000402862
TE000010000062470783931329   PATRICIA LIMA         01310100SAO PAULO           SP202403262150TRS49170000190661
TE000010000062501657555748632ISABELA FREITAS       20040020RIO DE JANEIRO      RJ202401062142EXT 1260000223391
TE000010000062655738410960   JOAO DA SILVA         88010400FLORIANOPOLIS       SC202408081852ENT34420000441741
TE000010000062753176602445   DIEGO NASCIMENTO      74110010GOIANIA             GO202408250832ENT25030000139541
TE000010000062869757554606   ISABELA FREITAS       40020010SALVADOR            BA202405171126ENT31530000127371
TE000010000062988249969660   ISABELA FREITAS       88010400FLORIANOPOLIS       SC202412160932AUS27230000339162
TE000010000063041403634874   BRUNO FERREIRA        20040020RIO DE JANEIRO      RJ202403111807DEV20750000295031
TE000010000063122930944312   PEDRO OLIVEIRA        29010330VITORIA             ES202404111454EXT27500000216501
TE000010000063299900725668   AMANDA RIBEIRO        30130110BELO HORIZONTE      MG202405070724EXT18180000274651
TE000010000063383715104136   AMANDA RIBEIRO        50010000RECIFE              PE202409041831DEV30590000380111
TE000010000063432249673719   LARISSA CARVALHO      50010000RECIFE              PE202406091649AUS48720000077502
TE000010000063509454028944   LUCAS PEREIRA         90010160PORTO ALEGRE        RS202409271024DEV37600000264551
TE000010000063613667488689   LEONARDO BARBOSA      69005010MANAUS              AM202411040633AUS43450000277792
TE000010000063714183590949   MARIA SOUZA           66015110BELEM               PA202405241516AUS23840000122062
TE000010000063872544527861   MARIA SOUZA           74110010GOIANIA             GO202406201429EXT14360000360191
TE000010000063907519391460   JULIANA ALVES         50010000RECIFE              PE202410061135ENT19700000205871
TE000010000064099108587770   AMANDA RIBEIRO        80010010CURITIBA            PR202401160912DEV18650000393621
TE000010000064156797463177   PEDRO OLIVEIRA        90010160PORTO ALEGRE        RS202407251126AUS37010000481572
TE000010000064286163386381   JULIANA ALVES         01310100SAO PAULO           SP202404111047AUS11630000198602
TE000010000064398640946654   LEONARDO BARBOSA      50010000RECIFE              PE202408190649TRS19430000258301
TE000010000064434954121762   MARIA SOUZA           57020480MACEIO              AL202410030754ENT15460000348021
TE000010000064548280092053   DIEGO NASCIMENTO      80010010CURITIBA            PR202401141540TRS33710000343821
TE000010000064669001923315   CARLOS LIMA           29010330VITORIA             ES202406020617ENT26660000417631
TE000010000064784276861277   LEONARDO BARBOSA      88010400FLORIANOPOLIS       SC202404111314SAI27920000285661
TE000010000064894201844576   DIEGO NASCIMENTO      20040020RIO DE JANEIRO      RJ202407311156DEV30810000034761
TE000010000064941031841732   LARISSA CARVALHO      80010010CURITIBA            PR202403121216EXT36060000242121
TE000010000065054612038467   FERNANDA SANTOS       69005010MANAUS              AM202405131543ENT 7230000394521
TE000010000065189289143535   RAFAEL RODRIGUES      59010000NATAL               RN202404021640EXT36200000082161
TE000010000065286078138475   PEDRO OLIVEIRA        40020010SALVADOR            BA202405110729EXT23380000405291
TE000010000065350582405546512MARIA SOUZA           69005010MANAUS              AM202411110642EXT36280000071201
TE000010000065459737253031584DIEGO NASCIMENTO      60150160FORTALEZA           CE202404261417SAI45810000010761
TE000010000065540092319507   ISABELA FREITAS       50010000RECIFE              PE202405040656TRS16470000381301
TE000010000065603432926205555DIEGO NASCIMENTO      59010000NATAL               RN202403162219DEV41780000243441
TE000010000065757833939943   PEDRO OLIVEIRA        01310100SAO PAULO           SP202410231705DEV42330000333221
TE000010000065878782809572   GABRIEL MENDES        40020010SALVADOR            BA202411052033SAI 1990000447031
TE000010000065989865984607   PATRICIA LIMA         80010010CURITIBA            PR202408021142TRS31890000419641
TE000010000066032718875875   MARIA SOUZA           29010330VITORIA             ES202410230742SAI 3830000318261
TE000010000066120469074390   DIEGO NASCIMENTO      59010000NATAL               RN202405121430AUS16570000402312
TE000010000066224440731971890ANA COSTA             20040020RIO DE JANEIRO      RJ202404020748SAI33560000320011
TE000010000066391694261666   RAFAEL RODRIGUES      50010000RECIFE              PE202402030631EXT47950000144091
TE000010000066475652083130   JOAO DA SILVA         20040020RIO DE JANEIRO      RJ202407160840DEV19120000116961
TE000010000066529007416643086JOAO DA SILVA         29010330VITORIA             ES202405311035EXT20260000063191
TE000010000066623246447106   MARIA SOUZA           29010330VITORIA             ES202407200727AUS20400000322072
TE000010000066788921418100   THIAGO ARAUJO         30130110BELO HORIZONTE      MG202411070632EXT22070000308621
TE000010000066880117056476   BRUNO FERREIRA        90010160PORTO ALEGRE        RS202411181729TRS37850000388341
TE000010000066933675947910999LEONARDO BARBOSA      59010000NATAL               RN202411161247AUS44350000185042
TE000010000067065230804533   RAFAEL RODRIGUES      57020480MACEIO              AL202404180616DEV45610000114091
TE000010000067170002675547539LARISSA CARVALHO      29010330VITORIA             ES202405280827SAI44330000091421
TE000010000067217230358217   FERNANDA SANTOS       69005010MANAUS              AM202404251355ENT45570000034681
TE000010000067348088611258   JOAO DA SILVA         60150160FORTALEZA           CE202406041303AUS27090000446572
TE000010000067477211271681   JOAO DA SILVA         74110010GOIANIA             GO202409280954EXT38180000272341
TE000010000067535215267371   PEDRO OLIVEIRA        01310100SAO PAULO           SP202408190659AUS44750000268962
TE000010000067664641473594   LARISSA CARVALHO      90010160PORTO ALEGRE        RS202410181612EXT39220000191241
TE000010000067752577689977   JULIANA ALVES         66015110BELEM               PA202410201705AUS32600000022282
TE000010000067823701409507   PEDRO OLIVEIRA        80010010CURITIBA            PR202411250939DEV32120000477361
TE000010000067932304772596   PEDRO OLIVEIRA        88010400FLORIANOPOLIS       SC202402161740EXT29220000450031
TE000010000068033841629062   ISABELA FREITAS       88010400FLORIANOPOLIS       SC202409170820EXT34470000260571
TE000010000068130980518343493LARISSA CARVALHO      40020010SALVADOR            BA202406131933ENT43780000326871
TE000010000068234724416762   ANA COSTA             29010330VITORIA             ES202410012147TRS20770000013491
TE000010000068347429326834   GABRIEL MENDES        50010000RECIFE              PE202401131137TRS 9530000275661
TE000010000068489084548262   THIAGO ARAUJO         50010000RECIFE              PE202404151306SAI28650000341581
TE000010000068587663404197447LARISSA CARVALHO      80010010CURITIBA            PR202404031019AUS33850000338192
TE000010000068616921751713   CAMILA MARTINS        88010400FLORIANOPOLIS       SC202412021040DEV25330000214761
TE000010000068770500574580   AMANDA RIBEIRO        69005010MANAUS              AM202408021534AUS43400000195372
TE000010000068883127607833594ISABELA FREITAS       30130110BELO HORIZONTE      MG202411221058TRS30680000083091
TE000010000068988160353417   LARISSA CARVALHO      88010400FLORIANOPOLIS       SC202406291526ENT22460000064681
TE000010000069091014739129835GABRIEL MENDES        60150160FORTALEZA           CE202405240643ENT12030000300601
TE000010000069127715685390   LEONARDO BARBOSA      20040020RIO DE JANEIRO      RJ202412142018TRS40930000373501
TE000010000069240803089229   MARIA SOUZA           59010000NATAL               RN202407251452ENT32870000213511
TE000010000069340293764526   BRUNO FERREIRA        90010160PORTO ALEGRE        RS202408191033ENT14810000155971
TE000010000069465626008059   ISABELA FREITAS       01310100SAO PAULO           SP202412080955DEV46190000335181
TE000010000069530053782868722MARIA SOUZA           57020480MACEIO              AL202404070629ENT 6030000355461
TE000010000069669223976621541CAMILA MARTINS        59010000NATAL               RN202412220837DEV 5870000291851
TE000010000069727292942863583PATRICIA LIMA         74110010GOIANIA             GO202403261812DEV48720000417321
TE000010000069874955910923   JULIANA ALVES         80010010CURITIBA            PR202407042232TRS38310000097321
TE000010000069934638916190   CAMILA MARTINS        80010010CURITIBA            PR202410112123SAI 2510000457571
TE000010000070096149909416   THIAGO ARAUJO         74110010GOIANIA             GO202406161141ENT16320000304211
TE000010000070189145481189   ANA COSTA             50010000RECIFE              PE202411161132TRS28620000338221
TE000010000070274940092628   GABRIEL MENDES        69005010MANAUS              AM202406260656AUS16180000014022
TE000010000070380570197435   THIAGO ARAUJO         80010010CURITIBA            PR202412171042DEV11550000216381
TE000010000070456808469001   BRUNO FERREIRA        88010400FLORIANOPOLIS       SC202411300908SAI32140000099841
TE000010000070524947002519   MARIA SOUZA           69005010MANAUS              AM202411292057SAI26250000455081
TE000010000070660957724877   PATRICIA LIMA         50010000RECIFE              PE202407161357ENT44530000139341
TE000010000070728909100634   THIAGO ARAUJO         60150160FORTALEZA           CE202411170832ENT22630000088221
TE000010000070822305975733682GABRIEL MENDES        59010000NATAL               RN202409021822AUS30480000476882
TE000010000070925868568506   DIEGO NASCIMENTO      60150160FORTALEZA           CE202409132133SAI33830000203081
TE000010000071087130002554   DIEGO NASCIMENTO      66015110BELEM               PA202405151654SAI20550000187241
TE000010000071185294844704   ANA COSTA             88010400FLORIANOPOLIS       SC202412231523ENT27940000436701
TE000010000071233706951181   LEONARDO BARBOSA      69005010MANAUS              AM202411270912DEV37110000238531
TE000010000071355942298133   CARLOS LIMA           60150160FORTALEZA           CE202402092054AUS 8130000053072
TE000010000071416774360489   JOAO DA SILVA         59010000NATAL               RN202410302221DEV13710000287361
TE000010000071543694749347688LEONARDO BARBOSA      40020010SALVADOR            BA202409151905AUS 8420000459152
TE000010000071677645808431   NATALIA ROCHA         69005010MANAUS              AM202411201610EXT 6510000454981
TE000010000071790053126055   AMANDA RIBEIRO        60150160FORTALEZA           CE202402011058EXT44540000493151
TE000010000071859587695591   FERNANDA SANTOS       69005010MANAUS              AM202409210814ENT41630000339751
TE000010000071931835941234   BRUNO FERREIRA        74110010GOIANIA             GO202403291211TRS43290000036561
TE000010000072024557116274   LUCAS PEREIRA         80010010CURITIBA            PR202402221538SAI43130000269781
TE000010000072170231740281   MARIA SOUZA           69005010MANAUS              AM202401022124SAI25300000179431
TE000010000072246026335641   DIEGO NASCIMENTO      66015110BELEM               PA202404012102SAI28090000098791
TE000010000072314351723685044ISABELA FREITAS       80010010CURITIBA            PR202403271803EXT12600000473441
TE000010000072454722405530   DIEGO NASCIMENTO      57020480MACEIO              AL202402090914DEV 2390000002791
TE000010000072589275234087   MARIA SOUZA           29010330VITORIA             ES202407101935EXT19470000143481
TE000010000072656385981828   RAFAEL RODRIGUES      57020480MACEIO              AL202404172019DEV32910000380001
TE000010000072705573380792   DIEGO NASCIMENTO      66015110BELEM               PA202407170636EXT24660000006581
TE000010000072875017505665   BRUNO FERREIRA        90010160PORTO ALEGRE        RS202410310741AUS27460000350552
TE000010000072997223242043   JOAO DA SILVA         01310100SAO PAULO           SP202407231344ENT48030000068831
TE000010000073069713635911   PATRICIA LIMA         88010400FLORIANOPOLIS       SC202403160753SAI45850000260761
TE000010000073123286140245422RAFAEL RODRIGUES      88010400FLORIANOPOLIS       SC202410311010TRS20640000014651
TE000010000073220001327892824JULIANA ALVES         80010010CURITIBA            PR202402012136ENT20110000219971
TE000010000073329561762948   RAFAEL RODRIGUES      69005010MANAUS              AM202409061818ENT45020000493891
TE000010000073497795361408   LUCAS PEREIRA         01310100SAO PAULO           SP202411242002DEV 5400000256971
TE000010000073536027315672   LARISSA CARVALHO      20040020RIO DE JANEIRO      RJ202409071227SAI49140000095401
TE000010000073698977738243   GABRIEL MENDES        30130110BELO HORIZONTE      MG202402021427SAI49660000104841
TE000010000073728338138522359JOAO DA SILVA         69005010MANAUS              AM202403152143ENT48580000462271
TE000010000073801441245229   CARLOS LIMA           60150160FORTALEZA           CE202407081828EXT 3150000342361
TE000010000073993935046293   LUCAS PEREIRA         66015110BELEM               PA202408231407TRS17110000224131
TE000010000074033878959190   BRUNO FERREIRA        40020010SALVADOR            BA202401171421DEV40500000236851
TE000010000074108257232300   AMANDA RIBEIRO        01310100SAO PAULO           SP202410131955ENT46670000285561
TE000010000074248467475291   RAFAEL RODRIGUES      90010160PORTO ALEGRE        RS202405071741AUS30740000027092
TE000010000074369227025254   ANA COSTA             29010330VITORIA             ES202402260757TRS30080000484221
TE000010000074441266768094   MARIA SOUZA           88010400FLORIANOPOLIS       SC202406091819AUS 3900000162762
TE000010000074542453206543   CARLOS LIMA           69005010MANAUS              AM202411200818SAI25440000038441
TE000010000074637152431091   BRUNO FERREIRA        66015110BELEM               PA202407291341ENT30910000157791
TE000010000074712252649747   ISABELA FREITAS       50010000RECIFE              PE202402011928EXT32230000190361
TE000010000074886307078101   MARIA SOUZA           20040020RIO DE JANEIRO      RJ202403101553TRS43900000006071
TE000010000074994211874900   RAFAEL RODRIGUES      60150160FORTALEZA           CE202410260852ENT 6050000287911
TE000010000075031492049930640RAFAEL RODRIGUES      20040020RIO DE JANEIRO      RJ202403070803AUS 4280000439902
TE000010000075131055031588   THIAGO ARAUJO         90010160PORTO ALEGRE        RS202406110724AUS 2260000282232
TE000010000075251414835156   JOAO DA SILVA         74110010GOIANIA             GO202406280917EXT11770000300041
TE000010000075321538611511   PEDRO OLIVEIRA        57020480MACEIO              AL202412291911EXT39570000063051
TE000010000075459341061650   RAFAEL RODRIGUES      88010400FLORIANOPOLIS       SC202409121120TRS18640000079611
TE000010000075507371220725   MARIA SOUZA           90010160PORTO ALEGRE        RS202411271520EXT15480000197021
TE000010000075688609692533   LARISSA CARVALHO      01310100SAO PAULO           SP202402200659DEV48110000155681
TE000010000075791400998129   THIAGO ARAUJO         88010400FLORIANOPOLIS       SC202402261042EXT16130000338391
TE000010000075841594925434   BRUNO FERREIRA        59010000NATAL               RN202401231025AUS22340000422552
TE000010000075938696648110512LEONARDO BARBOSA      66015110BELEM               PA202403102009TRS16480000012601
TE000010000076077798367781   JOAO DA SILVA         50010000RECIFE              PE202401022244SAI21590000035261
TE000010000076135133157920   ISABELA FREITAS       30130110BELO HORIZONTE      MG202412091350AUS32560000054982
TE000010000076262017295126   DIEGO NASCIMENTO      01310100SAO PAULO           SP202412151937AUS10040000057302
TE000010000076308403909276   AMANDA RIBEIRO        40020010SALVADOR            BA202407290649DEV35190000149761
TE000010000076433995066676   JOAO DA SILVA         29010330VITORIA             ES202406231701DEV 3170000425071
TE000010000076509083069250980CAMILA MARTINS        80010010CURITIBA            PR202408081519ENT48920000376111
TE000010000076612436160502   NATALIA ROCHA         66015110BELEM               PA202410260728AUS 8550000380932
TE000010000076781498367849032PEDRO OLIVEIRA        50010000RECIFE              PE202408141436EXT 8660000077921
TE000010000076867550043753   ANA COSTA             80010010CURITIBA            PR202408161741EXT11830000116231
TE000010000076908386039036   AMANDA RIBEIRO        60150160FORTALEZA           CE202410111928TRS33410000309311
TE000010000077035153474392   AMANDA RIBEIRO        01310100SAO PAULO           SP202409220910ENT38530000357621
TE000010000077103781010320823RAFAEL RODRIGUES      57020480MACEIO              AL202402191800DEV 3010000378011
TE000010000077278851661907   DIEGO NASCIMENTO      60150160FORTALEZA           CE202406081457DEV 4930000183951
TE000010000077394616222772   LARISSA CARVALHO      20040020RIO DE JANEIRO      RJ202401101617EXT 4080000111001
TE000010000077402846559218   LEONARDO BARBOSA      80010010CURITIBA            PR202407152251AUS21490000409442
TE000010000077533974539180   FERNANDA SANTOS       40020010SALVADOR            BA202410041535AUS34630000055212
TE000010000077644433736090   GABRIEL MENDES        80010010CURITIBA            PR202408121614EXT39320000395081
TE000010000077763183429002   PATRICIA LIMA         57020480MACEIO              AL202410301141AUS45000000224062
TE000010000077834615121676089LARISSA CARVALHO      01310100SAO PAULO           SP202402150624AUS26990000331392
TE000010000077978242565829   LUCAS PEREIRA         90010160PORTO ALEGRE        RS202406171444EXT 4400000411531
TE000010000078045039863834   DIEGO NASCIMENTO      69005010MANAUS              AM202411040633ENT22090000192811
TE000010000078160296532831   CAMILA MARTINS        66015110BELEM               PA202404130630ENT39190000393821
TE000010000078219048786015   MARIA SOUZA           90010160PORTO ALEGRE        RS202412291358SAI23700000208881
TE000010000078398294541833788ANA COSTA             60150160FORTALEZA           CE202411292148EXT26190000094831
TE000010000078407438203950   MARIA SOUZA           50010000RECIFE              PE202409171928AUS28270000218922
TE000010000078553576036733614FERNANDA SANTOS       60150160FORTALEZA           CE202408291405TRS 8630000284781
TE000010000078629566148243   LARISSA CARVALHO      60150160FORTALEZA           CE202410061604AUS44210000106142
TE000010000078757730614601   AMANDA RIBEIRO        66015110BELEM               PA202405100838AUS26110000016812
TE000010000078800925683596   CARLOS LIMA           50010000RECIFE              PE202409231340DEV39810000312981
TE000010000078954023471451   LUCAS PEREIRA         50010000RECIFE              PE202405190649SAI44550000424341
TE000010000079065652936756   FERNANDA SANTOS       50010000RECIFE              PE202407081421EXT22170000009091
TE000010000079149893975955   JULIANA ALVES         69005010MANAUS              AM202412021540SAI15840000449471
TE000010000079294705447658390PEDRO OLIVEIRA        90010160PORTO ALEGRE        RS202412012024EXT14460000292471
TE000010000079338852871583443JOAO DA SILVA         30130110BELO HORIZONTE      MG202410252057EXT20660000359861
TE000010000079442402948046   GABRIEL MENDES        90010160PORTO ALEGRE        RS202407160734EXT37970000262511
TE000010000079542724771157873AMANDA RIBEIRO        29010330VITORIA             ES202410010821AUS11040000264542
TE000010000079673671387314031LEONARDO BARBOSA      88010400FLORIANOPOLIS       SC202403011827AUS10850000278002
TE000010000079769889676218224THIAGO ARAUJO         74110010GOIANIA             GO202411181108TRS41470000265301
TE000010000079886707167148   LEONARDO BARBOSA      80010010CURITIBA            PR202408231021AUS44970000242872
TE000010000079935298009341   JULIANA ALVES         29010330VITORIA             ES202408141316TRS23060000084261
TE000010000080071155822181   LEONARDO BARBOSA      80010010CURITIBA            PR202402132005DEV 1150000295531
TE000010000080167769313164   BRUNO FERREIRA        40020010SALVADOR            BA202410101212AUS25240000105742
TE000010000080203533210125   PATRICIA LIMA         88010400FLORIANOPOLIS       SC202407252020DEV 6650000191511
TE000010000080395977031705   LARISSA CARVALHO      90010160PORTO ALEGRE        RS202412021023DEV17070000122291
TE000010000080443545636798836GABRIEL MENDES        69005010MANAUS              AM202404301940TRS26550000471431
TE000010000080598106326739   CARLOS LIMA           66015110BELEM               PA202401141852EXT 2880000180061
TE000010000080694299211924743BRUNO FERREIRA        01310100SAO PAULO           SP202408082134SAI 5890000377381
TE000010000080738721120382   LEONARDO BARBOSA      74110010GOIANIA             GO202409151237DEV 4350000068711
TE000010000080805954761680   DIEGO NASCIMENTO      90010160PORTO ALEGRE        RS202401181302TRS 3520000004011
TE000010000080954680131433   LARISSA CARVALHO      01310100SAO PAULO           SP202407022116SAI16210000067081
TE000010000081011549599291   AMANDA RIBEIRO        74110010GOIANIA             GO202402251853DEV 4860000394701
TE000010000081136417659205   LEONARDO BARBOSA      60150160FORTALEZA           CE202410041250AUS 3050000373562
TE000010000081216801153609   DIEGO NASCIMENTO      60150160FORTALEZA           CE202404171523EXT17020000429401
TE000010000081397320096015   LUCAS PEREIRA         80010010CURITIBA            PR202404130622SAI15660000225371
TE000010000081424888804970   RAFAEL RODRIGUES      69005010MANAUS              AM202405211620TRS 8960000447711
TE000010000081532405741193   CAMILA MARTINS        40020010SALVADOR            BA202410170940ENT20200000336261
TE000010000081691667709521   GABRIEL MENDES        57020480MACEIO              AL202406192254AUS44470000469332
TE000010000081739429008892585AMANDA RIBEIRO        90010160PORTO ALEGRE        RS202404120712AUS 2940000140472
TE000010000081831205886948   CAMILA MARTINS        40020010SALVADOR            BA202412200729TRS43630000300641
TE000010000081913409514050   PEDRO OLIVEIRA        90010160PORTO ALEGRE        RS202402211345EXT32640000049121
TE000010000082000048541234   GABRIEL MENDES        57020480MACEIO              AL202402230655EXT48730000186391
TE000010000082125539625561   RAFAEL RODRIGUES      60150160FORTALEZA           CE202402211042EXT47200000355251
TE000010000082210932152941   AMANDA RIBEIRO        29010330VITORIA             ES202408080907ENT26220000337581
TE000010000082324096526121   DIEGO NASCIMENTO      59010000NATAL               RN202407301533ENT 5940000001201
TE000010000082423301679655673FERNANDA SANTOS       40020010SALVADOR            BA202410071224DEV26180000065161
TE000010000082544622807490   BRUNO FERREIRA        40020010SALVADOR            BA202409190621EXT31080000004851
TE000010000082642816836257   AMANDA RIBEIRO        30130110BELO HORIZONTE      MG202402130644DEV41170000121251
TE000010000082710591579815   BRUNO FERREIRA        80010010CURITIBA            PR202402161537TRS31150000109751
TE000010000082843522173284   CARLOS LIMA           60150160FORTALEZA           CE202409252159EXT15050000371271
TE000010000082920291726513   RAFAEL RODRIGUES      30130110BELO HORIZONTE      MG202401171540TRS41190000337961
TE000010000083031456253030   CARLOS LIMA           60150160FORTALEZA           CE202402031301ENT10460000074131
TE000010000083146442143778   JOAO DA SILVA         59010000NATAL               RN202407091642DEV12310000484301
TE000010000083277026049769799GABRIEL MENDES        57020480MACEIO              AL202408181122AUS49460000285762
TE000010000083341135076499   DIEGO NASCIMENTO      50010000RECIFE              PE202403262045AUS16560000142712
TE000010000083480071194750   CAMILA MARTINS        66015110BELEM               PA202404041002ENT 6410000094391
TE000010000083570422593323   ISABELA FREITAS       20040020RIO DE JANEIRO      RJ202406041313ENT34280000048741
TE000010000083669744697071   ANA COSTA             74110010GOIANIA             GO202409261657ENT10000000077131
TE000010000083787239037155   GABRIEL MENDES        69005010MANAUS              AM202401061125TRS11660000137771
TE000010000083824588469371   RAFAEL RODRIGUES      50010000RECIFE              PE202411272122ENT43520000439121
TE000010000083971178444002748NATALIA ROCHA         60150160FORTALEZA           CE202403281419SAI37170000398081
TE000010000084066604486711   ISABELA FREITAS       90010160PORTO ALEGRE        RS202402081904DEV14820000484851
TE000010000084173477496784   CAMILA MARTINS        88010400FLORIANOPOLIS       SC202403052057SAI20850000420881
TE000010000084218815675413   BRUNO FERREIRA        60150160FORTALEZA           CE202411171721EXT36890000391361
TE000010000084307907704553   JOAO DA SILVA         01310100SAO PAULO           SP202402062112ENT22470000068371
TE000010000084425921298567240CAMILA MARTINS        80010010CURITIBA            PR202406241120ENT41800000307451
TE000010000084585652642437   PATRICIA LIMA         30130110BELO HORIZONTE      MG202409151050SAI 2930000121131
TE000010000084641064960726520ANA COSTA             88010400FLORIANOPOLIS       SC202405222229AUS 4850000408222
TE000010000084737250093219   BRUNO FERREIRA        69005010MANAUS              AM202411141250SAI 5850000245421
TE000010000084865069615884   RAFAEL RODRIGUES      66015110BELEM               PA202406281013AUS21480000380352
TE000010000084911002089676   MARIA SOUZA           60150160FORTALEZA           CE202401301909SAI16270000063301
TE000010000085017519679296   JOAO DA SILVA         80010010CURITIBA            PR202409241922SAI 7600000177341
TE000010000085134220704310   THIAGO ARAUJO         50010000RECIFE              PE202403271109DEV39230000166321
TE000010000085295893674286   MARIA SOUZA           20040020RIO DE JANEIRO      RJ202409051856EXT39590000437571
TE000010000085373880111305   FERNANDA SANTOS       66015110BELEM               PA202410241013DEV19220000238621
TE000010000085422377504480   DIEGO NASCIMENTO      66015110BELEM               PA202405031116TRS46070000446471
TE000010000085584604126165   BRUNO FERREIRA        66015110BELEM               PA202406081029DEV21280000128701
TE000010000085697021461690   PATRICIA LIMA         50010000RECIFE              PE202412081804ENT13190000400231
TE000010000085754419043770   FERNANDA SANTOS       74110010GOIANIA             GO202412041929ENT28040000006951
TE000010000085862372464560   PATRICIA LIMA         90010160PORTO ALEGRE        RS202407010805DEV49590000020551
TE000010000085956322679111   AMANDA RIBEIRO        90010160PORTO ALEGRE        RS202406210911TRS15030000446671
TE000010000086091694222925   JULIANA ALVES         90010160PORTO ALEGRE        RS202405110835AUS28060000313522
TE000010000086161765722458   GABRIEL MENDES        59010000NATAL               RN202404301927ENT41930000383581
TE000010000086234083378361   CAMILA MARTINS        59010000NATAL               RN202411201154AUS34960000342392
TE000010000086380807956530   JOAO DA SILVA         01310100SAO PAULO           SP202404051031TRS 2100000403641
TE000010000086460470928033   THIAGO ARAUJO         29010330VITORIA             ES202402141409EXT10130000141501
TE000010000086547279392268   NATALIA ROCHA         60150160FORTALEZA           CE202410191616SAI41850000273011
TE000010000086629336983240   AMANDA RIBEIRO        30130110BELO HORIZONTE      MG202409200850DEV29310000400891
TE000010000086761809809880   RAFAEL RODRIGUES      01310100SAO PAULO           SP202411151214AUS15490000286772
TE000010000086844522759426732AMANDA RIBEIRO        30130110BELO HORIZONTE      MG202404041006TRS29530000156041
TE000010000086901699329745116BRUNO FERREIRA        59010000NATAL               RN202412250827ENT45780000261471
TE000010000087049513396605752LEONARDO BARBOSA      69005010MANAUS              AM202407211558AUS 6380000445772
TE000010000087113207239191846BRUNO FERREIRA        57020480MACEIO              AL202407050749AUS18800000283522
TE000010000087285167655999   PEDRO OLIVEIRA        74110010GOIANIA             GO202407131937AUS34250000040262
TE000010000087323644995143   THIAGO ARAUJO         66015110BELEM               PA202401031412EXT21630000101631
TE000010000087416263177744   CARLOS LIMA           30130110BELO HORIZONTE      MG202403150954SAI25700000085971
TE000010000087519738190347   LUCAS PEREIRA         20040020RIO DE JANEIRO      RJ202408201606ENT15470000387261
TE000010000087683850833271   JOAO DA SILVA         60150160FORTALEZA           CE202406091247TRS 8170000142591
TE000010000087763431719163   LUCAS PEREIRA         29010330VITORIA             ES202406271428EXT 7970000459781
TE000010000087843382541768   LEONARDO BARBOSA      30130110BELO HORIZONTE      MG202412181002AUS45180000087132
TE000010000087994580284571   ISABELA FREITAS       69005010MANAUS              AM202410200948DEV43120000055881
TE000010000088025499314536   BRUNO FERREIRA        20040020RIO DE JANEIRO      RJ202404121258DEV36520000072731
TE000010000088167461616054   JULIANA ALVES         40020010SALVADOR            BA202408190630EXT20400000250711
TE000010000088227470695312   ANA COSTA             50010000RECIFE              PE202409271554ENT32770000407491
TE000010000088329672041862   NATALIA ROCHA         40020010SALVADOR            BA202402030941AUS37350000361722
TE000010000088475864740192   CAMILA MARTINS        80010010CURITIBA            PR202405060928TRS27720000000791
TE000010000088516143840397   CARLOS LIMA           59010000NATAL               RN202407122121TRS29310000288361
TE000010000088690941425095   DIEGO NASCIMENTO      40020010SALVADOR            BA202407280713DEV28040000423571
TE000010000088788231329967   GABRIEL MENDES        40020010SALVADOR            BA202406071259TRS44890000458281
TE000010000088859919776385   GABRIEL MENDES        57020480MACEIO              AL202407191009TRS23090000148491
TE000010000088963662871171   LARISSA CARVALHO      80010010CURITIBA            PR202404181638TRS29430000127971
TE000010000089050698958294   ISABELA FREITAS       69005010MANAUS              AM202404300738DEV38820000461291
TE000010000089155417939431491RAFAEL RODRIGUES      30130110BELO HORIZONTE      MG202402061716TRS 3710000379971
TE000010000089262428574040   CAMILA MARTINS        30130110BELO HORIZONTE      MG202412082140EXT39110000012931
TE000010000089347663077997   BRUNO FERREIRA        20040020RIO DE JANEIRO      RJ202412070637ENT33370000461361
TE000010000089419407234615   MARIA SOUZA           60150160FORTALEZA           CE202403010831ENT43050000100231
TE000010000089520925139002   LEONARDO BARBOSA      88010400FLORIANOPOLIS       SC202407010704EXT 8670000199131
TE000010000089672990555237   GABRIEL MENDES        40020010SALVADOR            BA202412210616DEV41510000226051
TE000010000089745684426333   JULIANA ALVES         29010330VITORIA             ES202411201556EXT34940000224551
TE000010000089803483082413016MARIA SOUZA           69005010MANAUS              AM202412041442EXT22540000381191
TE000010000089959341773343071ISABELA FREITAS       88010400FLORIANOPOLIS       SC202403180940DEV14070000060301
